:020000040800F2
:10000000004002208DFB000891F8000899F80008D4
:1000100000000000000000000000000000000000E0
:1000200000000000000000000000000069F9000866
:10003000000000000000000073F900087DF90008CE
:10004000DDFB0008DDFB0008DDFB0008DDFB000830
:10005000DDFB0008DDFB0008DDFB0008DDFB000820
:100060008DF90008A5F90008BDF90008E1F90008BC
:1000700005FA0008DDFB0008DDFB0008DDFB0008D9
:10008000DDFB00081DFA000835FA0008DDFB00085A
:10009000DDFB00084DFA000871FA0008DDFB0008DE
:1000A000DDFB0008DDFB0008DDFB000895FA000819
:0C00B000DDFB0008ADFA0008DDFB0008D5
:1000C00010B5064C2378002B07D1054B002B02D02E
:1000D000044800E000BF0123237010BDDC010020B4
:1000E00000000000D4E20108044B10B5002B03D03F
:1000F0000349044800E000BF10BDC04600000000F6
:10010000E0010020D4E20108002243088B4274D3AE
:1001100003098B425FD3030A8B4244D3030B8B4208
:1001200028D3030C8B420DD3FF22090212BA030C11
:100130008B4202D31212090265D0030B8B4219D3F2
:1001400000E0090AC30B8B4201D3CB03C01A524112
:10015000830B8B4201D38B03C01A5241430B8B425A
:1001600001D34B03C01A5241030B8B4201D30B0343
:10017000C01A5241C30A8B4201D3CB02C01A52416A
:10018000830A8B4201D38B02C01A5241430A8B422D
:1001900001D34B02C01A5241030A8B4201D30B0216
:1001A000C01A5241CDD2C3098B4201D3CB01C01A30
:1001B000524183098B4201D38B01C01A524143093A
:1001C0008B4201D34B01C01A524103098B4201D328
:1001D0000B01C01A5241C3088B4201D3CB00C01A95
:1001E000524183088B4201D38B00C01A524143080D
:1001F0008B4201D34B00C01A5241411A00D2014632
:10020000524110467047FFE701B5002000F0F0F8BA
:1002100002BDC0460029F7D076E7704703460B437E
:100220007FD4002243088B4274D303098B425FD3EF
:10023000030A8B4244D3030B8B4228D3030C8B421B
:100240000DD3FF22090212BA030C8B4202D3121201
:10025000090265D0030B8B4219D300E0090AC30BD6
:100260008B4201D3CB03C01A5241830B8B4201D383
:100270008B03C01A5241430B8B4201D34B03C01A6C
:100280005241030B8B4201D30B03C01A5241C30AE4
:100290008B4201D3CB02C01A5241830A8B4201D355
:1002A0008B02C01A5241430A8B4201D34B02C01A3F
:1002B0005241030A8B4201D30B02C01A5241CDD2E4
:1002C000C3098B4201D3CB01C01A524183098B422F
:1002D00001D38B01C01A524143098B4201D34B0118
:1002E000C01A524103098B4201D30B01C01A52417B
:1002F000C3088B4201D3CB00C01A524183088B4202
:1003000001D38B00C01A524143088B4201D34B00EA
:10031000C01A5241411A00D201465241104670475C
:100320005DE0CA0F00D04942031000D34042534061
:1003300000229C4603098B422DD3030A8B4212D321
:10034000FC22890112BA030A8B420CD38901921153
:100350008B4208D3890192118B4204D389013AD090
:10036000921100E08909C3098B4201D3CB01C01A65
:10037000524183098B4201D38B01C01A5241430978
:100380008B4201D34B01C01A524103098B4201D366
:100390000B01C01A5241C3088B4201D3CB00C01AD3
:1003A000524183088B4201D38B00C01A5241D9D2EB
:1003B00043088B4201D34B00C01A5241411A00D26C
:1003C0000146634652415B10104601D34042002B68
:1003D00000D54942704763465B1000D3404201B5E7
:1003E000002000F005F802BD0029F8D016E770479C
:1003F0007047C046844608006146FFE71FB500F01D
:1004000059FC002801D40021C8421FBD10B500F0DE
:10041000D9FB4042013010BD10B500F04BFC002864
:1004200001DB002010BD012010BDC04610B500F05A
:1004300041FC002801DD002010BD012010BDC04698
:1004400010B500F0E7FB002801DC002010BD012002
:1004500010BDC04610B500F0DDFB002801DA002019
:1004600010BD012010BDC046002B11D1002A0FD1B4
:10047000002900D1002802D00021C943080007B498
:10048000024802A14018029003BDC04665FFFFFF6D
:1004900003B4684601B5029800F01EF8019B9E4621
:1004A00002B00CBC7047C0469E2110B5C905041CA3
:1004B000FFF7D0FF002803D1201C00F041FF10BD42
:1004C0009E21201CC90500F081FD00F039FF80232A
:1004D0001B069C466044F2E7F0B557464E4645463B
:1004E000DE46E0B504000D009246994683B08B428B
:1004F00030D82DD04946504600F0EEFF29000600C6
:10050000200000F0E9FF331A9846203B34D49B4684
:1005100053465A46934042461F00534693401E009E
:10052000AF423BD8AF4200D179E05B46A41BBD414E
:10053000002B00DA76E000220023009201930123D1
:100540005A4693400193012342469340009329E089
:100550008242CFD900220023009201930C9B002BF2
:1005600001D01C605D600098019903B0F0BCBB46EF
:10057000B246A946A046F0BD42469B4620239B1AA0
:100580005246DA40414613004A468A401700424626
:100590001F43534693401E00AF42C3D9002200239D
:1005A000009201934346002BD8D0FB0772081A43F0
:1005B00046467B080EE0AB4201D1A2420CD8A41AF9
:1005C0009D41012024196D410021013E24184D4117
:1005D000002E06D0AB42EED9013E24196D41002E0B
:1005E000F8D1009801995B4600196941002B24DB82
:1005F0002B005A464446D3402A00E2401C005B468A
:100600001500002B2ADB26009E40330026004746BB
:10061000BE403200801A9941009001919EE7A342AA
:10062000BCD882E74246202300219B1A0022009179
:1006300001920122DA40019285E7424620239B1A6B
:100640002A0046469A402300F340444613432A00BA
:10065000E2401C005B461500002BD4DA42462F0016
:100660002023260097409B1ADE403B003343CDE712
:10067000F8B5CE46474643025A0A4E024500C40F1B
:10068000480091462D0E720A000E944680B59B09D3
:10069000C90FB6092A1A8C4221D0002A0DDD002884
:1006A0002DD1002E00D18DE0511E012A00D11DE177
:1006B000FF2A00D1ABE00A0027E0002A4DD0421B00
:1006C000002D00D0CCE0002B00D179E0541E012A8F
:1006D00000D128E1FF2A00D197E02200C5E0002ADE
:1006E00000DC96E000284FD0FF2D00D18FE0802164
:1006F000C9040E431B2A51DD2A00013318E0FF2DE7
:1007000000D184E08021C9040E4301211B2A08DCAA
:1007100031002020D140821A96403200501E824182
:1007200011435B1A5A0159D407212A00194049D0B4
:100730000F211940042900D00433590142D5501C1F
:10074000FE2A3AD09B01C0B25B0AC0051843E407F9
:100750002043C0BCB946B046F8BDFE2080466F1CA1
:1007600038004746074200D08EE0002D00D0B4E0AC
:10077000002B00D1DBE0002E6CD0981B450100D48B
:10078000F7E00C00F31A3DE0002E1BD0511E012AA9
:1007900000D182E0FF2A3AD00A00ABE731002020E6
:1007A000D140821A96403200501E82410A439B1863
:1007B0005A01B9D56A1CFE2D75D1FF200023C4E76C
:1007C0000C003300DB08FF2A46D1002BF5D0802235
:1007D000D20313435B02FF205B0AB6E79F01BF0908
:1007E000380000F05BFE05388740854224DC3B0082
:1007F0002021421B0132D3408A1A97407A1E97412A
:1008000000223B43590793D197E70C003300DB08E4
:10081000DBE7002A14D0421B002D4BD1002BD0D097
:10082000511E012A00D19EE0FF2AEFD00A001B2AA8
:100830005FDD0200731C7BE7504B2A1A3B40E1E767
:10084000FE216A1C11423BD1002D5DD1002B7FD0CF
:10085000002E7FD10022DB085B025B0AD0B274E776
:10086000FF28D2D08024E404234301241B2A07DC80
:100870001C002025D440AA1A93405A1E93411C43C1
:10088000331B05000C004DE79F1B7A0122D4002F7B
:10089000A6D100240020002357E79B19012501322F
:1008A000590100D440E70121354819405B08034055
:1008B0000B43A7E7FF28A9D08021C9040B43B6E763
:1008C000FF2A00D179E79B195B08590700D02FE771
:1008D000DB08C1E70C00F71A82E7002B2CD1002EB1
:1008E00093D180230024FF20DB032EE701259B1BEF
:1008F00018E719002025D140AA1A93405A1E9341A7
:100900000B4305009B1953E7002B00D17EE7002E17
:1009100000D17CE78022D203914502D3944500D2D6
:100920003300DB0853E70C00F31A0135FAE6002E1A
:10093000AFD00C0033008DE7002E00D167E7802296
:10094000D2039145EDD39445EBD20C003300E8E798
:1009500033007FE79B1900225901B9D5074A13409C
:10096000DB08012278E79B190132013559019AD43D
:10097000DAE6031E8DD0DB086EE7C046FFFFFFFB03
:10098000FFFFFF7DF0B54F464646D6464402C0B550
:1009900047000E1C640A3F0EC50F002F3CD0FF2FEE
:1009A00042D00023802299469A46E400D2041443A0
:1009B0007F3F73025B0A984673001B0EF60F002BF5
:1009C0001BD0FF2B13D042468021D200C904114313
:1009D000884600207F3B2900FF1A4B467140C9B270
:1009E0000F2B00D9B5E0744A9B00D3589F4643466D
:1009F000002B3FD1FF3F023303E04346002B2DD1B4
:100A0000012329004A467140C9B21A430E2A38D838
:100A10006A48920082589746002C13D104239946C5
:100A2000033B00279A46C4E7002C05D108239946CA
:100A3000063BFF279A46BCE70C239946093BFF2754
:100A40009A46B6E7200000F029FD7627431F9C4018
:100A500000237F4299469A463F1AAAE7404600F093
:100A60001DFD4246431F9A4076235B421B1A904667
:100A70000020B0E703234A461A4391460320FC3383
:100A8000A9E70D00FF200022C005ED071043284311
:100A9000E0BCBA46B146A846F0BD0D0000200022D9
:100AA000F2E75346022BEDD0032B33D0A046012BA7
:100AB00005D100200022E7E7350003287AD03B006B
:100AC0007F33002B2DDD4246520707D00F224146CF
:100AD0000A40042A02D004229446E044424612010D
:100AE00005D54246364B1A403B0090468033FE2BDC
:100AF000C8DC42469201520AD8B2C5E780220025DE
:100B0000FF20D203C0E78022D203144202D0434622
:100B1000134249D08022D20322435202FF20520ABC
:100B2000B2E70122D31A1B2BC3DC4246DA4043460C
:100B30009E37BB40591E8B411A43530704D00F23E5
:100B40001340042B00D00432530129D50120002288
:100B50009AE7424663015501AB4215D21B200022A1
:100B6000013F01261C0052005B00002C01DB9D426E
:100B700001D85B1B324301380028F3D1581E834152
:100B8000134398460D009AE71A2001225B1BE8E701
:100B9000023B5A4253415B4235000022D8B273E710
:100BA00092010020520A6FE71A4352023500FF20DB
:100BB000520A69E74446ADE734F0010874F00108D1
:100BC000FFFFFFF770B542004E024C0045026D0A70
:100BD000120EC30F760A240EC90FFF2A10D0FF2C65
:100BE0000CD00120A2420AD1B54208D18B420FD0CD
:100BF000002A04D12800431E984100E0012070BD66
:100C00000120FF2CFBD13543F9D14B401800F6E70A
:100C10000020F4E730B5420044024D02C30F480003
:100C2000640A120E6D0A000EC90FFF2A19D0FF28A0
:100C30000BD0002A1ED100280BD1002D27D0002C6C
:100C400034D100292FD0080030BD002D28D1002A32
:100C500001D1002CF5D08B4207D1002B23D01800F6
:100C6000F2E7002C1CD1FF2814D0581E0223184094
:100C70000138E9E70028F8D08B42F6D18242F4DC53
:100C8000EBDBAC42F1D80020AC42DDD2E5E7002C32
:100C9000DAD0EAE7002D03D18B42E6D10020D3E77A
:100CA00002204042D0E701204042CDE78B42E8D00D
:100CB000DBE7C04630B5420044024D02C30F480096
:100CC000640A120E6D0A000EC90FFF2A1AD0FF28FF
:100CD0000ED0002A1ED100280ED1002D2AD0002CC3
:100CE0000CD08B421DD0581E02231840013810E052
:100CF000002D0DD1002A20D1002C1ED1002923D097
:100D0000080006E0002C03D1FF28ECD1002D17D0FD
:100D1000022030BD0028E6D08B42E4D18242E2DCE2
:100D200004DBAC42DFD80020AC42F2D2002B0BD067
:100D30001800EEE7002CECD0D5E78B42D3D1F5E7D5
:100D400000208B42E5D0CEE701204042E1E7C046DB
:100D5000F0B54F464646D64643025B0A4500C0B54D
:100D600099460F1C2D0EC60F002D00D188E0FF2DD7
:100D700000D18DE08022DB00D2041A43002391468B
:100D800098469A467F3D7C027B00640A1B0EFF0F4B
:100D9000002B68D0FF2B21D08022E400D204144322
:100DA00042467F3B5B1900215D1C0A2A2EDC7E40F7
:100DB0004246022A23DC013A012A00D9BDE0022979
:100DC0006ED001292CD100200022C005F607104367
:100DD0003043E0BCBA46B146A846F0BD2B00FF3315
:100DE000002C65D00322414611433200013588466C
:100DF0007A40FF350A2900DDD8E01600032140467D
:100E000001228240A620C000024220D05346022B7D
:100E100046D0032B00D1BBE051464C460129D2D02D
:100E20002B007F33002B70DD620704D00F2222409D
:100E3000042A00D00434220103D5634B1C402B004C
:100E40008033FE2B2CDCA201520AD8B2BDE79020E1
:100E50008000024227D1B938FF3810426DD03E00E1
:100E6000A1468A46D2E7002C41D1012342461A43CB
:100E700090462B00424601215D1C0A2A97DDC5E7FA
:100E8000002B26D104239846033B00259A467AE797
:100E9000002B18D108239846063BFF259A4672E797
:100EA000FF20002291E780220026FF20D2038CE75A
:100EB00041460222013511438846FF350A29A5DC47
:100EC00002217E4074E70C239846093BFF259A4691
:100ED00059E7180000F0E2FA4A46431F76259A4087
:100EE00000236D42914698469A462D1A4BE7200002
:100EF00000F0D4FA4246431F9C402B1A763B002157
:100F00005D1C0A2A00DC52E780E70122D31A1B2B62
:100F100000DD58E79E352200AC40DA40631E9C415C
:100F20002243530704D00F231340042B00D0043274
:100F3000530137D50120002247E7210C4A462404FB
:100F4000240C2700100C1204120C4443574348434E
:100F500051433A0C09195218944203D9802149028D
:100F60008C4660443F0411043F0CC9198C01671E74
:100F7000BC41120C890E12180C4392011443120149
:100F80000ED5012362081C40144349E73E00A146E8
:100F900080224B46D2031A435202FF20520A14E722
:100FA0001D003DE792010020520A0EE70F29EDD106
:100FB00080224B46D2031342EAD01442E8D13E00CD
:100FC000FF20224301E7C046FFFFFFF7F8B5474681
:100FD000CE464E0243024500720AC40F480080B557
:100FE00094465F0A2D0E9B09000EC90FB609FF2813
:100FF00024D0012251402A1A8C420FD0002A00DC52
:101000006AE1002835D1002E00D1A2E0511E012A4C
:1010100000D124E1FF2A21D00A002FE0002A00DCC1
:1010200067E100285ED0FF2D18D08021C9040E434F
:101030001B2A00DC76E02A00013332E02A00FF3A66
:101040009146002E42D08C4255D04A46002A00D10B
:101050009CE0002D00D177E00C003300DB08002B72
:1010600000D16EE08022D20313435B02FF205B0AB3
:1010700024E0FF2DF2D08021C9040E4301211B2A58
:1010800008DC31002020D140821A96403200501EE8
:10109000824111435B1A5A0160D407212A0019408A
:1010A00057D00F211940042900D00433590150D5DD
:1010B000501CFE2A45D09B01C0B25B0AC0051843F4
:1010C000E4072043C0BCB946B046F8BD01225140F8
:1010D0008C42BAD14A46002A10D0002D00D198E0A7
:1010E0000023BBE7002E34D0511E012A6ED0FF2A08
:1010F000B4D00A009CE7002A00D088E0FE206A1CD9
:10110000104200D092E0002D00D0A4E0002B00D1CE
:10111000CBE0002E00D0CAE00022DB085B025B0AB5
:10112000D0B2CBE731002020D140821A9640320065
:10113000501E82410A439B185A01AED56A1CFE2DEF
:101140004AD1FF200023B9E7FF22002B4BD10C002E
:101150003300DB08FF2A00D181E7DFE79F01BF09E9
:10116000380000F09BF905388740854221DC3B00C0
:101170002021421B0132D3408A1A97407A1E9741A0
:1011800000223B43590700D08BE78FE7FE206A1C03
:10119000104212D1002D52D1002B7CD0002EBBD09A
:1011A0009A1B500100D48BE001240022F31A0C405A
:1011B000E8E7564B2A1A3B40E4E79F1B7A0146D4E6
:1011C000002FCDD100240020002377E79B190125B3
:1011D0000132590100D460E701214D4819405B08F4
:1011E00003400B43CEE7571E012A5AD00C00FF2ABA
:1011F00033D001221B2F07DC2021C91B1A008B4092
:10120000FA40591E8B411A430500B31A43E7002DDB
:1012100023D1FF22002B9BD0511E012AD6D0FF2ABA
:101220001BD01B292CDD0200731C3AE7FF2A88D053
:101230009B195B08590700D033E7DB086EE7002BEA
:1012400010D1002E43D0012433000C4006E70124C6
:10125000F71A0C4084E7002B04D13300FEE6012589
:101260009B1B18E7002E00D1F8E68022D20397429C
:1012700004D3944502D2012433000C40DB08F1E68C
:101280001A002025CA40691A8B40591E8B4113430E
:1012900005009B1950E7002E94D0012433000C4028
:1012A0003AE70C000125F31AF5E6330034E79B1901
:1012B00000225901C1D5154A1340DB0801222DE750
:1012C000002A00D17EE713000022DB0826E78023F6
:1012D0000024FF20DB03F1E6002A00D156E7471B7C
:1012E0003A00002D00D130E78022D2040C001343D5
:1012F0007FE7002A00D101E7411B002D01D10A0040
:1013000088E78022D20413438BE7C046FFFFFFFB30
:10131000FFFFFF7D43024A02400049005B0A520A78
:10132000090E000EFF2806D00020FF2902D1531E0F
:101330009A4110007047FE38002BFBD1F4E7C046FD
:1013400041024200C30F490A0020120E7E2A03DD2B
:101350009D2A02DD094A9818704780200004014345
:10136000952A07DC9620821AD1404842002BF3D1FF
:101370000800F1E7963A9140F7E7C046FFFFFF7F8C
:1013800070B5002813D0C317C5185D40C40F2800DE
:1013900000F084F89E2301001B1A962B0FDC08280E
:1013A00034D008398D406D026D0AD8B202E00024B5
:1013B00000200025C0052843E407204370BD992B79
:1013C00016DC421F052800D095402A001148024033
:1013D0006E0709D00F263540042D05D00432550183
:1013E00002D59F2302405B1A9201550AD8B2E1E769
:1013F0000522121A2800D040020008001B30854048
:101400002800451EA84102431500DEE76D02962024
:101410006D0ACFE7FFFFFFFB70B5041E0ED000F092
:101420003DF89E2301001B1A962B0CDC08282FD0B8
:1014300008398C406402640AD8B201E0002000241C
:10144000C005204370BD992B16DC421F052800D033
:101450009440220010480240650709D00F252C4017
:10146000042C05D00432540102D59F2302405B1A9C
:101470009201540AD8B2E3E7020020001B329040E8
:101480000200501E82410520401AC4401443E0E788
:1014900064029620640AD3E7FFFFFFFB1C210123AF
:1014A0001B04984201D3000C10391B0A984201D347
:1014B000000A08391B09984201D30009043902A225
:1014C000105C40187047C04604030202010101018C
:1014D000000000000000000010B5002903D1FFF754
:1014E000DDFF203002E00800FFF7D8FF10BDC04646
:1014F00003B47146490840004900095E49008E4422
:1015000003BC704780B500AFC046BD4680BD00003B
:1015100080B584B000AF78600A00BB1C1A800A2333
:10152000FB6002E0FB68013BFB60FB68002BF9D12C
:10153000BB1C1B88DB00064A944663445B681B0C9B
:101540009BB29B059B0D9BB21800BD4604B080BDAD
:101550000098004080B584B000AF78600A00BB1CE2
:101560001A800A23FB6002E0FB68013BFB60FB681A
:10157000002BF9D1BB1C1B88DB00064A9446634450
:101580001B681B0C9BB29B059B0D9BB21800BD46B4
:1015900004B080BD0098004080B584B000AF786092
:1015A0000A00BB1C1A800A23FB6002E0FB68013BB7
:1015B000FB60FB68002BF9D1BB1C1B88DB00064AD3
:1015C000944663445B681B0C9BB29B059B0D9BB2CE
:1015D0001800BD4604B080BD0098004090B587B0AB
:1015E00002AF78607B68002B01D10123EAE07B68C1
:1015F000764A9B5CDBB2002B08D17A68A5239B005E
:101600000021D1547B6818000CF0B8FB7B686F4A4E
:10161000032199547B681B68180001F029FD0F23F2
:10162000FB1800221A7049E00F203B181A787968DD
:1016300013009B009B18DB00CB18153301221A7096
:101640003B181A78796813009B009B18DB00CB18B5
:1016500014333A1812781A703B181A787968130004
:101660009B009B18DB00CB18173300221A703B1825
:101670001A78796813009B009B18DB00CB18243381
:1016800000221A603B181A78796813009B009B1897
:10169000DB00CB18283300221A603B181B787968CE
:1016A0005A1C13009B009B18DB00CB18043300224C
:1016B0001A603B181A783B1801321A707B681B7944
:1016C0000F217A1812789A42AED37B1800221A7032
:1016D00056E00F243B191A7878685623FF33190017
:1016E00013009B009B18DB00C3185B1800221A70C4
:1016F0003B191A787868AA23590013009B009B189D
:10170000DB00C3185B183A1912781A703B191A7863
:1017100078685823FF33190013009B009B18DB00E7
:10172000C3185B1800221A703B191A787868B22324
:10173000590013009B009B18DB00C3185B180022A4
:101740001A603B191A787868B423590013009B007B
:101750009B18DB00C3185B1800221A603B191A782B
:101760007868B623590013009B009B18DB00C31850
:101770005B1800221A603B191A783B1901321A7063
:101780007B681B790F22BA1812789A42A1D37B6822
:1017900018687B686A46197C117059689A68DB681A
:1017A00001F09FFC7B6800225A747B68074A012184
:1017B00099547B681B7B012B03D17B68180001F0D7
:1017C00021FC00231800BD4605B090BD9502000025
:1017D00080B582B000AF78607A68A5239B00D35CA7
:1017E000012B01D1022314E07A68A5239B0001217B
:1017F000D1547B681B68180001F026FC7B681B68CD
:10180000180003F0CCF87A68A5239B000021D1547E
:1018100000231800BD4602B080BD000080B584B032
:1018200000AF78607B681B68180003F0C8F80300FD
:10183000FB607C4AA023D3580422134000D1EDE082
:10184000FA6880231B02134004D07B68180000F064
:1018500037FBE4E0FA688023DB00134011D07B689B
:101860001B685A6C7B681B686F490A405A647B6826
:1018700018000CF046FB7B680021180000F0E4F82B
:10188000CDE0FA688023DB01134008D07B681B6839
:101890005A6C7B681B6865490A405A64BFE0FA6865
:1018A00080239B01134008D07B681B685A6C7B68BF
:1018B0001B685F490A405A64B1E0FA6880235B0103
:1018C00013402CD07B681B681A6C7B681B68042152
:1018D0008A431A647B681B681A6C7B681B68082142
:1018E0008A431A647A68B3239B00D35C012B09D125
:1018F0007A68B3239B000021D1547B680021180033
:101900000CF07EFD7B6818000CF03CFB7B681B68CC
:101910005A6C7B681B6847490A405A647FE0FA6842
:1019200080231B0113401CD07B681B681A6C7B68EA
:101930001B6808210A431A647B681B685A6C7B6821
:101940001B683D490A405A647B681B681A6C7B68B7
:101950001B6804210A431A647B6818000CF0F6FA2D
:101960005DE0FB688022134038D07B681B685A6CAE
:101970007B681B6831490A405A647A68B3239B002C
:10198000D35C002B25D17B681B681A6C7B681B68B5
:1019900004210A431A647B681B681A6C7B681B6805
:1019A00008210A431A647A68B3239B000121D154A9
:1019B0007B681B685B6D9B083C22134019007A68AA
:1019C000B4239B00D1507B68012118000CF018FD56
:1019D00025E07B6818000CF0B9FA20E0FA68802353
:1019E0009B0013400CD07B681B685A6C7B681B689B
:1019F00013490A405A647B6818000CF073FA0EE031
:101A0000FA6880235B00134009D07B681B685A6C1E
:101A10007B681B680B490A405A6400E0C046BD461B
:101A200004B080BD00000140FFFB0000FFBF0000CC
:101A3000FFDF0000FFEF0000FFF700007FFF000066
:101A4000FFFD0000FFFE000080B582B000AF7860AF
:101A50000A00FB1C1A707A68A5239B00D35C012B3B
:101A600001D1022316E07A68A5239B000121D154FD
:101A70007B68FA1C12785A747B681A68FB1C1B7806
:101A80001900100002F078FF7A68A5239B0000215E
:101A9000D15400231800BD4602B080BD90B585B07A
:101AA00000AF78600C0010001900FB1C221C1A709B
:101AB0003B00021C1A80BB1C0A1C1A700B23FB186B
:101AC00000221A70FB1C1B785BB2002B10DAFB1C87
:101AD0001B7807221A4013009B009B18DB00103371
:101AE0007A68D3180433FB60FB6801225A7010E057
:101AF000FB1C1B7807221A4013009B009B18DB007D
:101B00005133FF337A68D3180433FB60FB6800223B
:101B10005A70FB1C1B7807221340DAB2FB681A705C
:101B20003B001B885B055A0DFB681A61FB68BA1CF9
:101B30001278DA70BB1C1B78022B02D1FB680022E2
:101B40001A717A68A5239B00D35C012B01D1022373
:101B500013E07A68A5239B000121D1547B681B68A0
:101B6000FA681100180001F0E7FA7A68A5239B00D3
:101B70000021D1540B23FB181B781800BD4605B07B
:101B800090BD80B584B000AF78600A00FB1C1A706D
:101B9000FB1C1B785BB2002B10DAFB1C1B780722A6
:101BA0001A4013009B009B18DB0010337A68D3188F
:101BB0000433FB60FB6801225A7010E0FB1C1B78A9
:101BC00007221A4013009B009B18DB005133FF33A0
:101BD0007A68D3180433FB60FB6800225A70FB1C40
:101BE0001B7807221340DAB2FB681A707A68A523C3
:101BF0009B00D35C012B01D1022311E07A68A5235D
:101C00009B000121D1547B681B68FA681100180001
:101C100001F0F8FE7A68A5239B000021D15400232F
:101C20001800BD4604B080BD80B586B000AFF86036
:101C30007A603B600B203B180A1C1A7001007B186D
:101C40001B7807221A4013009B009B18DB005133BE
:101C5000FF33FA68D31804337B617B697A685A6171
:101C60007B693A689A617B690022DA617B690022AC
:101C70005A707B181B7807221340DAB27B691A70FE
:101C8000FB681B687A691100180002F021F8002334
:101C90001800BD4606B080BD80B582B000AF786048
:101CA0000A00FB1C1A70FB1C1B7807221A4078687C
:101CB000B823590013009B009B18DB00C3185B1866
:101CC0001B681800BD4602B080BD80B586B000AF6D
:101CD000F8607A603B600B203B180A1C1A703B18B6
:101CE0001B7807221A4013009B009B18DB0010335F
:101CF000FA68D31804337B617B697A685A617B691F
:101D00003A689A617B692422012199547B693A6877
:101D10001A627B690022DA617B6901225A703B18E2
:101D20001B7807221340DAB27B691A70FB681B68C4
:101D30007A691100180001F0CBFF00231800BD469E
:101D400006B080BD80B584B000AF78600A00FB1C8F
:101D50001A70FB1C1B78072213407A681279934291
:101D600001D9012348E0FB1C1B785BB2002B10DA81
:101D7000FB1C1B7807221A4013009B009B18DB00FA
:101D800010337A68D3180433FB60FB6801225A7061
:101D90000EE0FB1C1A7813009B009B18DB005133EC
:101DA000FF337A68D3180433FB60FB6800225A7053
:101DB000FB6801229A70FB1C1B7807221340DAB2E1
:101DC000FB681A707A68A5239B00D35C012B01D1B4
:101DD000022311E07A68A5239B000121D1547B687E
:101DE0001B68FA681100180002F0F8FC7A68A52355
:101DF0009B000021D15400231800BD4604B080BDD3
:101E000080B584B000AF78600A00FB1C1A70FB1C20
:101E10001B780F2213407A681279934201D901236B
:101E20004AE0FB1C1B785BB2002B10DAFB1C1B7812
:101E300007221A4013009B009B18DB0010337A68BE
:101E4000D3180433FB60FB6801225A7010E0FB1CBE
:101E50001B7807221A4013009B009B18DB005133AC
:101E6000FF337A68D3180433FB60FB6800225A7092
:101E7000FB6800229A70FB1C1B7807221340DAB221
:101E8000FB681A707A68A5239B00D35C012B01D1F3
:101E9000022311E07A68A5239B000121D1547B68BD
:101EA0001B68FA681100180002F0DAFC7A68A523B2
:101EB0009B000021D15400231800BD4604B080BD12
:101EC000B0B592B000AF786042E37B681B685A6C93
:101ED00026217B181A807B181B88DAB233203B1826
:101EE0000F210A401A703B181B78072B01D90123D8
:101EF00037E33323FB181B78002B00D00AE126239D
:101F0000FB181B881022134040D17B681B681B689C
:101F1000D34A1340FB607B681B68FA688021090282
:101F20000A431A607B6814337B647B6C1B78DB008C
:101F3000CC4A944663441B681B0C9B059A0D7B6C32
:101F4000DA617B6C5A697B6CDB69D2187B6C5A61F5
:101F50007B68002118000BF0A7FF7B685B7CDBB27D
:101F6000002B00D1F4E27B6C9B69002B00D0EFE2E8
:101F70007B685B7CDBB2802252421343DAB27B681F
:101F80001B68DA647B6800225A74E1E27B6855338F
:101F9000FF337B647B681B681A6842217B181A80B8
:101FA0007B181A8880231B0113405CD07B681A6859
:101FB0007B6C1B7819001000FFF7AAFA03001A00C7
:101FC0007B6CDA617B6CDB69082B2ED07B681B682D
:101FD0001B68A54A1340BB61BB6980225201534074
:101FE000BB617B681B68BA69A0490A431A607B68B9
:101FF0001B681B689E4A13407B617B69102253401B
:102000007B617B681B687A6998490A431A607B6820
:102010001B681B68974A13403B617B681B683A69E1
:1020200080210A431A6000239BE27B6818687B6862
:10203000A722920099187B6CDA887B6CDB699BB2D3
:1020400002F040FD7B681B681B688A4A1340FB61F5
:102050007B681B68FA6980210A431A607B68180054
:102060000BF0ECFE74E24223FB1800229B5E002B77
:1020700000DB6DE27B681B681B687E4A1340FB63D4
:102080007B681B68FA6B80210A431A607B681A68B8
:102090007B6C1B7819001000FFF73AFA03001A0056
:1020A0007B6CDA617B6CDB69002B16D17B681B686B
:1020B0001B686D4A13403B623B6A802252015340C9
:1020C0003B623B6A8022920153403B627B681B6803
:1020D0003A6A66490A431A603AE27B6C5B69002BF4
:1020E00000D135E27B6818687B6C59697B6CDA88B3
:1020F0007B6CDB699BB202F0E5FC7B6C5A697B6C04
:10210000DB69D2187B6C5A617B68002118000BF0E8
:10211000AAFE1DE27B681B681A0033217B181B781E
:102120009B00D3181A6842203B181A803B180022E3
:102130009B5E002B00DBE7E07B681B681A007B18C6
:102140001B789B00D3181B684A4A1340FB627B68CC
:102150001B681A0008007B181B789B00D318FA6ACA
:1021600080210A431A603B181A7813009B009B18C1
:10217000DB005133FF337A68D31804337B647B6C04
:102180001B7B002B1CD17B681A687B6C1B78342569
:102190007C1919001000FFF7BBF9030023802C0005
:1021A0003B191B88002B00D185E07B6818687B6C8D
:1021B00059697B6CDA883B191B8802F083FC7AE052
:1021C0007B6CDB78022B0CD13423FC184223FB18E8
:1021D0001A88796C7B68180000F0CCF90300238022
:1021E00069E07B681B681A007B6C1B789B00D31826
:1021F0001B68214A1340BB627B681B681A007B6C1A
:102200001B789B00D318BA6A1C490A431A607B6882
:102210001B681A007B6C1B789B00D3181A688023FC
:10222000DB0113402CD07B681A687B6C1B7834254B
:102230007C1919001000FFF78DF9030023802C0092
:102240003B191B88002B36D07B6818687B6C59695A
:102250007B6C1A893B191B8802F034FC2BE0C046CA
:102260000F8FFF07009800408FBFFF07808000009E
:10227000BF8FFF078F0FFF078F8FFF07C080000002
:102280007B681A687B6C1B7834257C191900100058
:10229000FFF782F9030023802C003B191B88002BD9
:1022A00009D07B6818687B6C59697B6C5A893B192B
:1022B0001B8802F007FC7B6CDA6934217B181B88D1
:1022C000D2187B6CDA617B6C9B69002B05D07B1884
:1022D0001A887B6C1B699A4207D27B6C1A787B68E0
:1022E000110018000BF0BFFD0EE07B6C5A6934231F
:1022F000FB181B88D2187B6C5A617B681B687A6C50
:102300001100180001F0E4FC42203B181B888022D9
:10231000134000D11CE133217B181A7813009B0075
:102320009B18DB0010337A68D31804337B647B6816
:102330001B681A007B181B789B00D3181B688B4AFC
:102340001340BB637B681B681A007B181B789B00DB
:10235000D318BA6B802109020A431A607B6CDB78C0
:10236000012B00D0A3E07B6C00229A617B6C1B7B6D
:10237000002B00D193E03B181B884022134047D02C
:102380007B6C5B78002B21D17B6C1B78DB00784A5F
:10239000944663441A687B6C1B78DB0074498C4656
:1023A0006344920192091A607B6C1B78DB00704ACF
:1023B000944663441A687B6C1B78DB006C498C463E
:1023C0006344802109060A431A6068E07B6C5B78ED
:1023D000012B64D17B6C1B78DB00654A9446634417
:1023E0001A687B6C1B78DB0061498C4663441204DD
:1023F000120C1A607B6C1B78DB005D4A9A187B6CB0
:102400001B78DB005A498C46634412681A6046E028
:102410007B6C5B78002B21D17B6C1B78DB00544AF2
:10242000944663445A687B6C1B78DB0050498C46A9
:102430006344920192095A607B6C1B78DB004C4A22
:10244000944663445A687B6C1B78DB0048498C4691
:102450006344802109060A435A6020E07B6C5B7864
:10246000012B1CD17B6C1B78DB00414A94466344F2
:102470005A687B6C1B78DB003D498C466344120430
:10248000120C5A607B6C1B78DB00394A9A187B6C03
:102490001B78DB0036498C46634452685A607B6C7B
:1024A0001A787B68110018000BF0FEFC50E0422304
:1024B000FB181A8880235B00134041D17B6C1B788A
:1024C000DB002B4A944663441B681B0C9AB23621EE
:1024D0007B189205920D1A807B6C9A697B181B8879
:1024E0009A4207D97B6C9A697B181B88D21A7B6C3D
:1024F0009A6102E07B6C00229A617B6C9B69002BE5
:1025000007D17B6C1A787B68110018000BF0CCFCAB
:102510001EE07B6C5A6936217B181B88D2187B6CB5
:102520005A617B6CDA697B181B88D2187B6CDA6184
:102530007B681B687A6C1100180001F0C9FB07E08A
:102540004223FB181A88796C7B68180000F0FCF8AD
:102550007B681B685A6C80231B02134000D0B4E4D4
:1025600000231800BD4612B0B0BDC0460F8FFF0754
:1025700000980040B0B58AB000AFF860B960BB1DEC
:102580001A80BB1D1A888023DB01134067D0FB68CB
:102590001A68BB681B781E257C1919001000FEF70D
:1025A000D9FF03002380BB689A697B191B889A4274
:1025B00007D3BB689A697B191B88D21ABB689A61DA
:1025C00002E0BB6800229A61BB689B69002B1AD1AC
:1025D000FB681B681A00BB681B789B00D3181B683C
:1025E000554A1340BB61BB69802292015340BB61D5
:1025F000FB681B681A00BB681B789B00D318BA697C
:102600004E490A431A60BB1D1B884022134015D057
:10261000FB681B681A00BB681B789B00D3181B68FB
:10262000474A13407B61FB681B681A00BB681B7834
:102630009B00D3187A6943490A431A601E243B1948
:102640001B88002B00D170E0FB681868BB685969D3
:10265000BB681A893B191B8802F034FA65E0FB68F5
:102660001A68BB681B781E257C1919001000FEF73C
:1026700093FF03002380BB689A697B191B889A42E9
:1026800007D3BB689A697B191B88D21ABB689A6109
:1026900002E0BB6800229A61BB689B69002B1AD1DB
:1026A000FB681B681A00BB681B789B00D3181B686B
:1026B000214A13407B627B6A8022920153407B62F5
:1026C000FB681B681A00BB681B789B00D3187A6AEA
:1026D0001A490A431A60BB1D1B884022134015D1BA
:1026E000FB681B681A00BB681B789B00D3181B682B
:1026F000134A13403B62FB681B681A00BB681B78D7
:102700009B00D3183A6A0F490A431A601E243B19EA
:102710001B88002B09D0FB681868BB685969BB6827
:102720005A893B191B8802F0CDF91E23FB181B8820
:102730001800BD460AB0B0BD8FBFFF078080000003
:102740008F8FFF07C0800000B0B590B000AFF86079
:10275000B960BB1D1A80BB1D1B884022134000D1ED
:10276000ECE1FB681A68BB681B781E257C19190010
:102770001000FEF7EFFE03002380BB689A697B1907
:102780001B889A4207D9BB689A697B191B88D21AA1
:10279000BB689A6102E0BB6800229A61BB689B69D2
:1027A000002B00D0D0E0BB685B78002B21D1BB6848
:1027B0001B78DB00DC4A944663441A68BB681B78CC
:1027C000DB00D9498C466344920192091A60BB68C8
:1027D0001B78DB00D44A944663441A68BB681B78B4
:1027E000DB00D1498C466344802109060A431A6004
:1027F00020E0BB685B78012B1CD1BB681B78DB0039
:10280000C94A944663441A68BB681B78DB00C64912
:102810008C4663441204120C1A60BB681B78DB0000
:10282000C14A9A18BB681B78DB00BF498C466344D9
:1028300012681A60BB685B78002B21D1BB681B78DB
:10284000DB00B94A944663445A68BB681B78DB00D6
:10285000B5498C466344920192095A60BB681B7863
:10286000DB00B14A944663445A68BB681B78DB00BE
:10287000AD498C466344802109060A435A6020E032
:10288000BB685B78012B1CD1BB681B78DB00A64AB8
:10289000944663445A68BB681B78DB00A2498C46A7
:1028A00063441204120C5A60BB681B78DB009E4A1A
:1028B0009A18BB681B78DB009B498C4663445268BE
:1028C0005A60BB68DB78022B19D1FB681B681A00C1
:1028D000BB681B789B00D3181B68944A1340FB63AA
:1028E000FB6B20225340FB63FB681B681A00BB682C
:1028F0001B789B00D318FA6B8D490A431A60BB689A
:102900001A78FB68110018000BF0CEFABB1D1A886C
:102910008023DB01134015D0FB681B681A00BB68DD
:102920001B789B00D3181B68824A1340BB63FB686B
:102930001B681A00BB681B789B00D318BA6B7E49D2
:102940000A431A60002303E3BB1D1A888023DB01BE
:10295000134015D0FB681B681A00BB681B789B00EE
:10296000D3181B68734A1340FB62FB681B681A008C
:10297000BB681B789B00D318FA6A6F490A431A6038
:10298000BB6824229B5C012B00D0C2E2BB685A6961
:102990001E217B181B88D218BB685A61BB68DA6994
:1029A0007B181B88D218BB68DA61BB681A6ABB68DF
:1029B0001B699A4209D3BB681B69BB62BB681A6A70
:1029C000BB6AD21ABB681A6216E0BB681B6A002B8E
:1029D00008D11E23FB181B88BB62BB682422002180
:1029E000995409E0BB68242200219954BB681B6AF2
:1029F000BB62BB6800221A62BB685B78002B62D1A5
:102A0000BB681B78DB00484A944663441A68BB687D
:102A10001B78DB0044498C466344920192091A609A
:102A2000BB6A002B11D1BB681B78DB003E4A944681
:102A300063441A68BB681B78DB003B498C466344DF
:102A4000802109060A431A6062E0BB6A3E2B1BD84C
:102A5000BB6A5B083B63BB6A0122134002D03B6B3D
:102A600001333B63BB681B78DB002F4A9446634409
:102A700019683B6B9A06BB681B78DB002A488446C2
:102A800063440A431A6043E0BB6A5B093B63BB6A69
:102A90001F22134002D13B6B013B3B63BB681B7899
:102AA000DB00214A944663441A683B6B9B061A4339
:102AB000BB681B78DB001C498C46634480210906F7
:102AC0000A431A6024E0BB685B78012B20D1BB6805
:102AD0001B78DB00144A944663441A68BB681B7871
:102AE000DB0011498C4663441204120C1A60BB6867
:102AF0001B78DB000C4A944663441968BB6A1A04CD
:102B0000BB681B78DB000848844663440A431A60AC
:102B1000FB681868BB685969BB681A89BB6A9BB2B5
:102B200001F05AFFF5E1C04600980040BF8FFF0753
:102B3000808000008F8FFF0780C00000FB681A684C
:102B4000BB681B781E257C1919001000FEF724FDB8
:102B500003002380BB689A697B191B889A4207D3BC
:102B6000BB689A697B191B88D21ABB689A6102E01C
:102B7000BB6800229A61BB689B69002B00D0D0E043
:102B8000BB685B78002B21D1BB681B78DB00C44A93
:102B9000944663441A68BB681B78DB00C0498C46C6
:102BA0006344920192091A60BB681B78DB00BC4A3F
:102BB000944663441A68BB681B78DB00B8498C46AE
:102BC0006344802109060A431A6020E0BB685B78F1
:102BD000012B1CD1BB681B78DB00B14A94466344CF
:102BE0001A68BB681B78DB00AD498C46634412044D
:102BF000120C1A60BB681B78DB00A94A9A18BB68E4
:102C00001B78DB00A6498C46634412681A60BB68D7
:102C10005B78002B21D1BB681B78DB00A04A94466F
:102C200063445A68BB681B78DB009D498C4663444B
:102C3000920192095A60BB681B78DB00984A94465F
:102C400063445A68BB681B78DB0095498C46634433
:102C5000802109060A435A6020E0BB685B78012B9B
:102C60001CD1BB681B78DB008D4A944663445A68CC
:102C7000BB681B78DB008A498C4663441204120C43
:102C80005A60BB681B78DB00854A9A18BB681B78C2
:102C9000DB0083498C46634452685A60BB68DB782A
:102CA000022B19D1FB681B681A00BB681B789B00BC
:102CB000D3181B687B4A13407B627B6A20225340F7
:102CC0007B62FB681B681A00BB681B789B00D318EB
:102CD0007A6A75490A431A60BB681A78FB68110062
:102CE00018000BF0E1F8BB1D1A888023DB011340AC
:102CF00015D1FB681B681A00BB681B789B00D318B2
:102D00001B686A4A13403B62FB681B681A00BB6879
:102D10001B789B00D3183A6A65490A431A6000235E
:102D200016E1BB1D1A888023DB01134015D1FB6817
:102D30001B681A00BB681B789B00D3181B685B4A92
:102D400013407B61FB681B681A00BB681B789B0003
:102D5000D3187A6956490A431A60BB6824229B5CDF
:102D6000012B00D0D5E0BB685A691E217B181B8857
:102D7000D218BB685A61BB68DA697B181B88D21805
:102D8000BB68DA61BB681A6ABB681B699A4209D3DF
:102D9000BB681B69BB62BB681A6ABB6AD21ABB6894
:102DA0001A6216E0BB681B6A002B08D11E23FB18B1
:102DB0001B88BB62BB6824220021995409E0BB68D0
:102DC0001B6ABB62BB6800221A62BB682422002116
:102DD0009954BB685B78002B6CD1BB681B78DB0017
:102DE0002F4A944663445A68BB681B78DB002C4921
:102DF0008C466344920192095A60BB6A002B11D140
:102E0000BB681B78DB00264A944663445A68BB685B
:102E10001B78DB0022498C466344802109060A4363
:102E20005A606CE0BB6A3E2B1BD8BB6A5B08BB6177
:102E3000BB6A0122134002D0BB690133BB61BB688E
:102E40001B78DB00164A944663445968BB699A06AE
:102E5000BB681B78DB001248844663440A435A600F
:102E60004DE0BB6A5B09BB61BB6A1F22134002D104
:102E7000BB69013BBB61BB681B78DB00084A944619
:102E800063445A68BB699B061A43BB681B78DB0026
:102E900003498C466344802109060A435A602EE0A8
:102EA00000980040BF8FFF07808000008F8FFF07D2
:102EB00080C00000BB685B78012B20D1BB681B7809
:102EC000DB00254A944663445A68BB681B78DB00E4
:102ED00021498C4663441204120C5A60BB681B786B
:102EE000DB001D4A944663445968BB6A1A04BB68F8
:102EF0001B78DB001848844663440A435A60FB6829
:102F00001868BB685969BB685A89BB6A9BB201F0F3
:102F100063FDFB681B681A00BB681B789B00D31815
:102F20001B680E4A13407B637B6B102253407B630C
:102F30007B6B202253407B63FB681B681A00BB68D5
:102F40001B789B00D3187A6B05490A431A6000234B
:102F50001800BD4610B0B0BD00980040BF8FFF07FD
:102F60008080000090B587B000AFF86008001100C5
:102F70007B600A243B19021C1A800823FB180A1CD8
:102F80001A8021007B181B88802213409BB2002BE3
:102F90000DD07B181B8807221A4013009B009B183A
:102FA000DB001033FA68D31804337B610CE00A238A
:102FB000FB181A8813009B009B18DB005133FF336A
:102FC000FA68D31804337B610823FB181B88002B95
:102FD00007D17B6900221A737B689AB27B69DA8019
:102FE0000BE07B6901221A737B689AB27B691A81B4
:102FF0007B681B0C9AB27B695A8100231800BD467E
:1030000007B090BD80B584B000AF78607B681B6866
:10301000FB607A68B5239B000121D1507A68B32305
:103020009B000021D154FB685B6D01221A43FB68B1
:103030005A65FB685B6D02221A43FB685A650023E0
:103040001800BD4604B080BD80B584B000AF786084
:103050007B6800225A64054BFB607B68FA681A643F
:1030600000231800BD4604B080BDC04680BF0000EC
:1030700080B584B000AF7860064BFB607B681B6C4A
:10308000FA68D2431A407B681A6400231800BD46D0
:1030900004B080BD80BF000080B582B000AF786012
:1030A0000A00FB1C1A70FB1C1B78002B06D17B68E6
:1030B0001B6C5B005A087B681A640DE0FB1C1B78D4
:1030C000012B07D17B681B6C802212061A437B6898
:1030D0001A6401E0012300E000231800BD4602B09D
:1030E00080BD84B0B0B584B000AF786004202024E7
:1030F0000019C0190160426083607B6801221A6474
:103100007B681B6C012293431A007B681A640F25AD
:103110007C197B6800211800FFF7BEFF03002370B5
:103120007B6800225A647B191B781800BD4604B0E6
:10313000B0BC08BC04B0184780B5A0B000AF786040
:1031400039607F23FB1800221A707A683B681B786D
:103150009B00D3181B68DC4A1340BB673B68DB78D5
:10316000032B0ED019DC022B1CD016DC002B02D056
:10317000012B0CD011E0BB6F802292001343BB6780
:1031800011E0BB6FC022D2001343BB670BE0BB6FE3
:103190008022D2001343BB6705E07F23FB18012286
:1031A0001A7000E0C0467A683B681B789B00D31811
:1031B000BA6FC6490A431A607A683B681B789B005D
:1031C000D3181B68C24A13403A6812781343BB668F
:1031D0007A683B681B789B00D318BA6EBB490A43D8
:1031E0001A603B681B7B002B00D055E13B685B7885
:1031F000002B6ED03B681B78DB00B64A94466344D4
:103200001A683B681B78DB00B2498C466344120C99
:1032100012041A603B681B78DB00AE4A9446634494
:1032200019683B68DB889B089BB29A003B681B7857
:10323000DB00A848844663440A431A607A683B6806
:103240001B789B00D3181B68BB61BB6940221340ED
:1032500011D07A683B681B789B00D3181B689C4A86
:1032600013407B617A683B681B789B00D3187A69AE
:1032700099490A431A603B68DB78012B16D07A68BB
:103280003B681B789B00D3181B68944A1340FB6073
:10329000FB6820225340FB607A683B681B789B00E8
:1032A000D318FA6889490A431A6096E37A683B683A
:1032B0001B789B00D3181B68884A13403B617A68CF
:1032C0003B681B789B00D3183A6980490A431A600F
:1032D00083E33B681B78DB007E4A944663445A686C
:1032E0003B681B78DB007B498C466344120C12045C
:1032F0005A603B681B78DB00764A94466344596801
:103300003B68DB889B089BB29A003B681B78DB001C
:103310007048844663440A435A603B681B78DB006C
:103320006C4A944663445A683B681B78DB006949E1
:103330008C466344920192095A603B681B69002BDA
:1033400011D13B681B78DB00624A944663445A689B
:103350003B681B78DB005F498C466344802109068B
:103360000A435A6041E03B681B693E2B1DD83B680D
:103370001B695B087B673B681B690122134002D015
:103380007B6F01337B673B681B78DB00514A9446B7
:10339000634459687B6F9A063B681B78DB004D4895
:1033A000844663440A435A601FE03B681B695B091B
:1033B0007B673B681B691F22134002D17B6F013B77
:1033C0007B673B681B78DB00424A944663445A683B
:1033D0007B6F9B061A433B681B78DB003D498C469C
:1033E0006344802109060A435A607A683B681B7867
:1033F0009B00D3181B68BB62BA6A8023DB011340B1
:1034000011D07A683B681B789B00D3181B68304A40
:1034100013407B627A683B681B789B00D3187A6AFA
:103420002F490A431A603B681B78002B1CD17A682D
:103430003B681B789B00D3181B682A4A1340FB612A
:10344000FB69802252015340FB61FB69802292019B
:103450005340FB617A683B681B789B00D318FA697C
:103460001A490A431A60B8E27A683B681B789B00E5
:10347000D3181B681B4A13403B623B6A80229201AF
:1034800053403B627A683B681B789B00D3183A6ACA
:103490000E490A431A60A0E23B68DB78022B25D173
:1034A0007A683B681B789B00D3181B68084A134056
:1034B0003B667A683B681B789B00D3183A6E0A49D2
:1034C0000A431A6024E0C0468F89FF07808000000D
:1034D0008F8FFF0700980040C0800000BF8FFF075C
:1034E00080C000008FBFFF07808100007A683B68C2
:1034F0001B789B00D3181B68CA4A13407B667A6806
:103500003B681B789B00D3187A6EC7490A431A6040
:103510003B681B78DB00C54A944663441A683B68E5
:103520001B78DB00C1498C466344120C12041A60FC
:103530003B681B78DB00BD4A9446634419683B68CE
:103540001B899B089BB29A003B681B78DB00B7483D
:10355000844663440A431A603B681B78DB00B34A25
:10356000944663445A683B681B78DB00AF498C463D
:103570006344120C12045A603B681B78DB00AB4AB0
:103580009446634459683B685B899B089BB29A00E8
:103590003B681B78DB00A548844663440A435A60B5
:1035A0003B685B78002B00D09DE17A683B681B7814
:1035B0009B00D3181B683B643A6C8023DB011340EB
:1035C00011D07A683B681B789B00D3181B68984A17
:1035D0001340FB637A683B681B789B00D318FA6B37
:1035E00094490A431A607A683B681B789B00D31899
:1035F0001B68BB63BB6B4022134011D07A683B68E9
:103600001B789B00D3181B68894A13407B637A6838
:103610003B681B789B00D3187A6B87490A431A6072
:103620003B685B78002B68D13B681B78DB007F4AE6
:10363000944663441A683B681B78DB007B498C46E0
:103640006344920192091A603B681B69002B11D1F7
:103650003B681B78DB00754A944663441A683B68F4
:103660001B78DB0071498C466344802109060A43BC
:103670001A6068E03B681B693E2B1DD83B681B69DC
:103680005B083B673B681B690122134002D03B6F1C
:1036900001333B673B681B78DB00644A9446634414
:1036A00019683B6F9A063B681B78DB005F488446CD
:1036B00063440A431A6046E03B681B695B093B6749
:1036C0003B681B691F22134002D13B6F013B3B67E4
:1036D0003B681B78DB00554A944663441A683B6F8D
:1036E0009B061A433B681B78DB0050498C466344B9
:1036F000802109060A431A6025E03B685B78012BAC
:1037000021D13B681B78DB00484A944663441A6821
:103710003B681B78DB0045498C4663441204120C5D
:103720001A603B681B78DB00404A94466344196882
:103730003B681B691A043B681B78DB003B488446E6
:1037400063440A431A603B685B78002B00D075E045
:103750003B681B78DB00354A944663445A683B68F3
:103760001B78DB0031498C466344920192095A6010
:103770003B681B69002B11D13B681B78DB002B4A8F
:10378000944663445A683B681B78DB0027498C46A3
:103790006344802109060A435A6075E03B681B694F
:1037A0003E2B1DD83B681B695B08FB663B681B69A9
:1037B0000122134002D0FB6E0133FB663B681B788D
:1037C000DB001A4A944663445968FB6E9A063B68CC
:1037D0001B78DB001548844663440A435A6053E073
:1037E0003B681B695B09FB663B681B691F22134032
:1037F00002D1FB6E013BFB663B681B78DB000B4A8A
:10380000944663445A68FB6E9B061A433B681B78D8
:10381000DB0006498C466344802109060A435A604E
:1038200032E0C0468F8EFF07808000000098004085
:103830008F8FFF0780C00000C08000003B685B786E
:10384000012B21D13B681B78DB00674A9446634417
:103850005A683B681B78DB0063498C46634412045A
:10386000120C5A603B681B78DB005F4A9446634445
:1038700059683B681B691A043B681B78DB005A488F
:10388000844663440A435A607A683B681B789B000D
:10389000D3181B68554A13403B633B6B802252018F
:1038A00053403B633B6B8022920153403B637A68F9
:1038B0003B681B789B00D3183A6B4D490A431A604A
:1038C0007A683B681B789B00D3181B68494A1340F1
:1038D000FB627A683B681B789B00D318FA6A4449FC
:1038E0000A431A6079E07A683B681B789B00D3181A
:1038F0001B68FB65FA6D8023DB01134011D07A68E9
:103900003B681B789B00D3181B683B4A1340BB6580
:103910007A683B681B789B00D318BA6D37490A4315
:103920001A607A683B681B789B00D3181B687B651C
:103930007B6D4022134011D07A683B681B789B0056
:10394000D3181B682C4A13403B657A683B681B7888
:103950009B00D3183A6D2A490A431A603B68DB780A
:10396000012B16D07A683B681B789B00D3181B6824
:10397000204A1340BB64BB6C20225340BB647A686E
:103980003B681B789B00D318BA6C19490A431A602C
:1039900011E07A683B681B789B00D3181B68154AB6
:1039A0001340FB647A683B681B789B00D318FA6C61
:1039B0000F490A431A607A683B681B789B00D3184A
:1039C0001B680A4A13407B647A683B681B789B003B
:1039D000D3187A6C06490A431A607F23FB181B78B8
:1039E0001800BD4620B080BD009800408FBFFF0783
:1039F00080800000BF8FFF078F8FFF0780C000000F
:103A0000C080000080B596B000AF786039603B6838
:103A10001B7B002B64D13B685B78002B2FD07A682E
:103A20003B681B789B00D3181B683B613B694022B5
:103A3000134011D07A683B681B789B00D3181B6831
:103A40009D4A1340FB607A683B681B789B00D31843
:103A5000FA689A490A431A607A683B681B789B00A7
:103A6000D3181B68964A1340BB607A683B681B7882
:103A70009B00D318BA6893490A431A6017E17A6821
:103A80003B681B789B00D3181B68FB61FA69802395
:103A9000DB01134011D07A683B681B789B00D31878
:103AA0001B68854A1340BB617A683B681B789B00A2
:103AB000D318BA6984490A431A607A683B681B784C
:103AC0009B00D3181B68814A13407B617A683B686E
:103AD0001B789B00D3187A697A490A431A60E6E09A
:103AE0003B685B78002B71D17A683B681B789B0040
:103AF000D3181B68BB63BA6B8023DB01134011D062
:103B00007A683B681B789B00D3181B686A4A13408D
:103B10007B637A683B681B789B00D3187A6B6A4991
:103B20000A431A607A683B681B789B00D3181B68AD
:103B30003B633B6B4022134011D07A683B681B7893
:103B40009B00D3181B685C4A1340FB627A683B6891
:103B50001B789B00D318FA6A58490A431A607A689E
:103B60003B681B789B00D3181B68534A1340BB6209
:103B70007A683B681B789B00D318BA6A4F490A439E
:103B80001A607A683B681B789B00D3181B684F4A01
:103B900013407B627A683B681B789B00D3187A6A73
:103BA00048490A431A607A683B681B789B00D3181F
:103BB0001B68434A13403B627A683B681B789B0052
:103BC000D3183A6A3F490A431A6070E07A683B6842
:103BD0001B789B00D3181B687B657A6D8023DB0103
:103BE000134011D07A683B681B789B00D3181B6880
:103BF000314A13403B657A683B681B789B00D318B9
:103C00003A6D31490A431A607A683B681B789B0019
:103C1000D3181B68FB64FB6C4022134011D07A68F8
:103C20003B681B789B00D3181B68234A1340BB6476
:103C30007A683B681B789B00D318BA6C1F490A430B
:103C40001A607A683B681B789B00D3181B681A4A75
:103C500013407B647A683B681B789B00D3187A6CAE
:103C600019490A431A607A683B681B789B00D3188D
:103C70001B68134A13403B647A683B681B789B00BF
:103C8000D3183A6C0F490A431A607A683B681B786C
:103C90009B00D3181B680D4A1340FB637A683B688E
:103CA0001B789B00D318FA6B06490A431A6000235D
:103CB0001800BD4616B080BD8F8FFF07C080000082
:103CC000BF8FFF078080000080C000008FBFFF070C
:103CD00090B593B000AF786039603B685B78012B9A
:103CE00001D000F0C1FC3B689A693B681B699A42AD
:103CF00003D93B681B697B6402E03B689B697B647A
:103D00003B681B7B002B2BD13B6859693B68DA88E9
:103D10007B6C9BB2786800F05FFE3B681B78DB0031
:103D2000E34A944663441A683B681B78DB00E04929
:103D30008C4663441204120C1A603B681B78DB004B
:103D4000DB4A9446634419687B6C1A043B681B7811
:103D5000DB00D748844663440A431A6000F069FCDC
:103D60003B68DB78022B00D015E33B681A6A3B689E
:103D70001B699A4200D8C8E27A683B681B789B00AE
:103D8000D3181B68CB4A1340FB607A683B681B78EA
:103D90009B00D318FA68C8490A431A603B681A6A3C
:103DA0007B6CD21A3B681A627A683B681B789B006E
:103DB000D3181B684022134000D14FE13B685B7869
:103DC000002B62D13B681B78DB00B94A9446634400
:103DD0005A683B681B78DB00B5498C466344920106
:103DE00092095A607B6C002B11D13B681B78DB0079
:103DF000AF4A944663445A683B681B78DB00AC4981
:103E00008C466344802109060A435A6062E07B6C59
:103E10003E2B1BD87B6C5B083B647B6C0122134000
:103E200002D03B6C01333B643B681B78DB00A04A4B
:103E30009446634459683B6C9A063B681B78DB00E8
:103E40009B48844663440A435A6043E07B6C5B09A9
:103E50003B647B6C1F22134002D13B6C013B3B64F3
:103E60003B681B78DB00924A944663445A683B6C7B
:103E70009B061A433B681B78DB008D498C466344E4
:103E8000802109060A435A6024E03B685B78012BD5
:103E900020D13B681B78DB00854A944663445A680E
:103EA0003B681B78DB0082498C4663441204120C89
:103EB0005A603B681B78DB007D4A9446634459682E
:103EC0007B6C1A043B681B78DB00794884466344AA
:103ED0000A435A6016203B183A6852891A803B6898
:103EE00059697B6C9CB23B181A887868230000F0F3
:103EF00073FD3B685A697B6CD2183B685A613B681A
:103F00001A6A3B681B699A4206D93B681A6A7B6C3D
:103F1000D21A3B681A6205E03B681B6A7B643B6807
:103F200000221A623B685B78002B62D13B681B78E9
:103F3000DB005F4A944663441A683B681B78DB00E9
:103F40005B498C466344920192091A607B6C002B9A
:103F500011D13B681B78DB00554A944663441A68CC
:103F60003B681B78DB0052498C466344802109067C
:103F70000A431A6062E07B6C3E2B1BD87B6C5B08AB
:103F8000FB637B6C0122134002D0FB6B0133FB63AC
:103F90003B681B78DB00464A944663441968FB6B18
:103FA0009A063B681B78DB004148844663440A4319
:103FB0001A6043E07B6C5B09FB637B6C1F22134040
:103FC00002D1FB6B013BFB633B681B78DB00384A8B
:103FD000944663441A68FB6B9B061A433B681B7844
:103FE000DB0033498C466344802109060A431A608A
:103FF00024E03B685B78012B20D13B681B78DB0019
:104000002B4A944663441A683B681B78DB002849B6
:104010008C4663441204120C1A603B681B78DB0068
:10402000234A9446634419687B6C1A043B681B78E6
:10403000DB001F48844663440A431A6016203B187D
:104040003A6812891A803B6859697B6C9CB23B18AC
:104050001A887868230000F0BFFCEAE23B685B78CE
:10406000002B69D13B681B78DB00114A94466344FE
:104070001A683B681B78DB000D498C46634492014B
:1040800092091A607B6C002B18D13B681B78DB000F
:10409000074A944663441A683B681B78DB0004496E
:1040A0008C466344802109060A431A6069E0C046D1
:1040B000009800408F8FFF07808100007B6C3E2BB3
:1040C0001BD87B6C5B08BB637B6C0122134002D066
:1040D000BB6B0133BB633B681B78DB00DA4A944659
:1040E00063441968BB6B9A063B681B78DB00D648B3
:1040F000844663440A431A6043E07B6C5B09BB63FC
:104100007B6C1F22134002D1BB6B013BBB633B683E
:104110001B78DB00CC4A944663441A68BB6B9B0651
:104120001A433B681B78DB00C7498C4663448021F7
:1041300009060A431A6024E03B685B78012B20D112
:104140003B681B78DB00C04A944663441A683B68AE
:104150001B78DB00BC498C4663441204120C1A60C5
:104160003B681B78DB00B84A9446634419687B6C53
:104170001A043B681B78DB00B348844663440A4357
:104180001A6016203B183A6812891A803B685969F0
:104190007B6C9CB23B181A887868230000F01CFCEA
:1041A0003B685A697B6CD2183B685A613B681A6A53
:1041B0003B681B699A4206D93B681A6A7B6CD21A23
:1041C0003B681A6205E03B681B6A7B643B6800221F
:1041D0001A623B685B78002B62D13B681B78DB007E
:1041E000994A944663445A683B681B78DB009649B9
:1041F0008C466344920192095A607B6C002B11D16A
:104200003B681B78DB00904A944663445A683B68DD
:104210001B78DB008C498C466344802109060A43E5
:104220005A6062E07B6C3E2B1BD87B6C5B087B6327
:104230007B6C0122134002D07B6B01337B633B68B4
:104240001B78DB00804A9446634459687B6B9A066E
:104250003B681B78DB007C48844663440A435A6011
:1042600043E07B6C5B097B637B6C1F22134002D1B4
:104270007B6B013B7B633B681B78DB00724A944697
:1042800063445A687B6B9B061A433B681B78DB00D0
:104290006D498C466344802109060A435A6024E034
:1042A0003B685B78012B20D13B681B78DB00664ABA
:1042B000944663445A683B681B78DB0062498C462D
:1042C00063441204120C5A603B681B78DB005E4AA0
:1042D0009446634459687B6C1A043B681B78DB0086
:1042E0005948844663440A435A6016203B183A688A
:1042F00052891A803B6859697B6C9CB23B181A88BA
:104300007868230000F068FB93E13B681B6A7B64DC
:104310007A683B681B789B00D3181B684B4A134094
:104320003B617A683B681B789B00D3183A6948491F
:104330000A431A603B681B78DB00434A9446634497
:104340001A683B681B78DB003F498C4663441204C3
:10435000120C1A603B681B78DB003B4A94466344AE
:1043600019687B6C1A043B681B78DB00364884466E
:1043700063440A431A6016203B183A6812891A806F
:104380003B6859697B6C9CB23B181A88786823009B
:1043900000F022FB4DE13B681A6A7B6CD21A3B6845
:1043A0001A627A683B681B789B00D3181B6840220E
:1043B000134000D1A2E03B685B78002B69D13B68D9
:1043C0001B78DB00204A944663445A683B681B789C
:1043D000DB001D498C466344920192095A607B6C54
:1043E000002B11D13B681B78DB00174A94466344CD
:1043F0005A683B681B78DB0013498C466344802174
:1044000009060A435A6069E07B6C3E2B22D87B6C1C
:104410005B083B637B6C0122134002D03B6B013392
:104420003B633B681B78DB00074A9446634459684A
:104430003B6B9A063B681B78DB0003488446634469
:104440000A435A604AE0C046009800408F8EFF073A
:10445000808000007B6C5B093B637B6C1F221340F8
:1044600002D13B6B013B3B633B681B78DB00D34ACB
:10447000944663445A683B6B9B061A433B681B781F
:10448000DB00CE498C466344802109060A435A600A
:1044900024E03B685B78012B20D13B681B78DB0074
:1044A000C64A944663445A683B681B78DB00C3499C
:1044B0008C4663441204120C5A603B681B78DB0084
:1044C000BE4A9446634459687B6C1A043B681B7867
:1044D000DB00BA48844663440A435A6016203B18FE
:1044E0003A6852891A803B6859697B6C9CB23B18C8
:1044F0001A887868230000F06FFA9AE03B685B78CE
:10450000002B62D13B681B78DB00AC4A94466344C5
:104510001A683B681B78DB00A8498C46634492010B
:1045200092091A607B6C002B11D13B681B78DB0071
:10453000A24A944663441A683B681B78DB009F4993
:104540008C466344802109060A431A6062E07B6C52
:104550003E2B1BD87B6C5B08FB627B6C01221340FB
:1045600002D0FB6A0133FB623B681B78DB00934A95
:10457000944663441968FB6A9A063B681B78DB0023
:104580008E48844663440A431A6043E07B6C5B09AF
:10459000FB627B6C1F22134002D1FB6A013BFB6272
:1045A0003B681B78DB00854A944663441A68FB6AC3
:1045B0009B061A433B681B78DB0080498C466344AA
:1045C000802109060A431A6024E03B685B78012BCE
:1045D00020D13B681B78DB00784A944663441A6814
:1045E0003B681B78DB0075498C4663441204120C4F
:1045F0001A603B681B78DB00704A94466344196874
:104600007B6C1A043B681B78DB006C48844663446F
:104610000A431A6016203B183A6812891A803B68D0
:1046200059697B6C9CB23B181A887868230000F0AB
:10463000D3F97A683B681B789B00D3181B68604AE3
:104640001340BB60BB6810225340BB60BB68202294
:104650005340BB607A683B681B789B00D318BA68EC
:1046600058490A431A60A3E03B681B7B002B3ED1EC
:104670003B689B69002B16D13B68DB78002B12D17D
:104680007A683B681B789B00D3181B684E4A13401E
:104690003B627A683B681B789B00D3183A6A4B49A7
:1046A0000A431A6011E07A683B681B789B00D318B4
:1046B0001B68474A1340FB617A683B681B789B0084
:1046C000D318FA693F490A431A603B689A693B6804
:1046D0001B699A4207D93B689A693B681B69D21AE1
:1046E0003B689A6148E03B6800229A6144E03B687D
:1046F000DB78022B36D13B68DB69002B3CD07A6833
:104700003B681B789B00D3181A682A217B181A80F3
:104710007B181A888023DB01134004D07B181B8888
:10472000402213400BD12A217B181A888023DB01F9
:10473000134021D17B181B88402213401CD17A687A
:104740003B681B789B00D3181B681F4A13407B6291
:104750007A683B681B789B00D3187A6A1D490A4324
:104760001A6009E03B68DB78012B03D13B6800222B
:104770009A6101E001231CE07A683B681B789B008A
:10478000D3181B68144A1340BB61BB6980225201D5
:104790005340BB61BB69802292015340BB617A6880
:1047A0003B681B789B00D318BA6906490A431A6014
:1047B00000231800BD4613B090BDC04600980040CD
:1047C000BF8FFF07808000008F8FFF078081000070
:1047D0008F8EFF07C08000008FBFFF0780B584B0B9
:1047E00000AF786039603B685B78002B16D07A6840
:1047F0003B681B789B00D3181B68164A1340BB60AC
:10480000BB6810225340BB607A683B681B789B00F2
:10481000D318BA6810490A431A6016E07A683B68F0
:104820001B789B00D3181B680C4A1340FB60FB6885
:10483000802252015340FB607A683B681B789B00E2
:10484000D318FA6804490A431A6000231800BD46C9
:1048500004B080BDBF8FFF07808000008FBFFF07BF
:1048600080B588B000AF786039603B685B78002B1A
:1048700037D07A683B681B789B00D3181B683B6174
:104880003B694022134011D07A683B681B789B003B
:10489000D3181B68324A1340FB607A683B681B7868
:1048A0009B00D318FA682F490A431A603B68DB78EB
:1048B000012B50D07A683B681B789B00D3181B688B
:1048C000294A1340BB60BB6820225340BB607A6812
:1048D0003B681B789B00D318BA6824490A431A60C6
:1048E00039E07A683B681B789B00D3181B68FB6132
:1048F000FA698023DB01134011D07A683B681B788A
:104900009B00D3181B68164A1340BB617A683B684A
:104910001B789B00D318BA6915490A431A607A6854
:104920003B681B789B00D3181B68124A13407B61BD
:104930007B698022520153407B617B698022920116
:1049400053407B617A683B681B789B00D3187A6977
:1049500006490A431A6000231800BD4608B080BD0E
:104960008F8FFF07C0800000BF8FFF07808000008F
:1049700080C000008FBFFF0780B582B000AF7860B5
:104980000A00FB1C1A70FB1C1B78002B02D17B68F1
:104990008022DA6400231800BD4602B080BD80B5D5
:1049A00082B000AF78607B689B6D802212021A4350
:1049B0007B689A6500231800BD4602B080BD80B5B3
:1049C00084B000AF78607B685B6CFB60FB681800AC
:1049D000BD4604B080BD000080B58AB000AFF8606D
:1049E000B9601900BB1D1A803B1D0A1C1A803B1DB3
:1049F0001B8803339B08BB6116203B183A1D1288A5
:104A000003210A401A80BB683B613B181B88002BBE
:104A100002D0BB69013BBB61BB1D1B88284A944681
:104A20006344FB61BB693B621FE03B691A785978BC
:104A300009020A43997809040A43DB781B061343E9
:104A40001A00FB691A60FB690433FB613B6901339F
:104A50003B613B6901333B613B6901333B613B692E
:104A600001333B613B6A013B3B623B6A002BDCD17B
:104A70001623FB181B88002B1ED000237B623B698A
:104A80001B781A003B6ADB009A4013007A6A1343D2
:104A90007B623B6A01333B623B6901333B61162118
:104AA0007B181A887B18013A1A807B181B88002B08
:104AB000E5D1FB697A6A1A60C046BD460AB080BD7E
:104AC0000098004090B58BB000AFF860B960190055
:104AD000BB1D1A803B1D0A1C1A803B1D1B8803331B
:104AE0009B08FB611A203B183A1D128803210A40DB
:104AF0001A80BB687B61BB1D1B88394A944663449E
:104B00003B623B181B88002B02D0FB69013BFB6119
:104B1000FB697B623CE03B6A1A687B69FF211140BC
:104B20000C00197800200140081C211C0143197059
:104B3000110AFF2001400C00597800200140081C98
:104B4000211C01435970110CFF2001400C00997881
:104B500000200140081C211C01439970100EDA78D6
:104B600000210A40111C021C0A43DA703B6A04331C
:104B70003B627B6901337B617B6901337B617B69CC
:104B800001337B617B6901337B617B6A013B7B6223
:104B90007B6A002BBFD11A23FB181B88002B1BD06C
:104BA0003B6A1B683B617B6ADBB2DB003A69DA4037
:104BB0001300DAB27B691A707B6A01337B627B690E
:104BC00001337B611A217B181A887B18013A1A80FD
:104BD0007B181B88002BE6D1C046BD460BB090BDAC
:104BE0000098004080B500AF034B9A68E023DB01DA
:104BF00013401800BD4680BD0010024080B588B04B
:104C000000AF78607B68002B02D1012300F050FBDD
:104C10007B681B680122134000D17CE0C34B9B687A
:104C200038221340BB61C14BDB68032213407B6118
:104C3000BB69102B02D17B69032B02D0BB69082B07
:104C40000BD1BA4B1A6880239B02134062D07B6859
:104C50005B68002B5ED101232AE37B685A688023BE
:104C60005B029A4207D1B14B1A68B04B80214902CE
:104C70000A431A6020E07B685A68A023DB029A424C
:104C80000ED1AA4B1A68A94B8021C9020A431A60A7
:104C9000A64B1A68A54B802149020A431A600BE013
:104CA000A24B1A68A14BA2490A401A609F4B1A688E
:104CB0009E4BA0490A401A607B685B68002B14D0A9
:104CC00001F054FF03003B6108E001F04FFF0200D8
:104CD0003B69D31A642B01D90323E9E2934B1A6889
:104CE00080239B021340F0D015E001F03FFF03004A
:104CF0003B6108E001F03AFF02003B69D31A642BE4
:104D000001D90323D4E2894B1A6880239B02134004
:104D1000F0D100E0C0467B681B680222134000D13E
:104D200099E0824B9B6838221340BB617F4BDB6864
:104D3000032213407B61BB69102B02D17B69022BDC
:104D400002D0BB69002B35D1784B1A688023DB0079
:104D5000134005D07B68DB68002B01D10123A7E25B
:104D6000724B5B68744A134019007B685B691A02D6
:104D70006E4B0A435A60BB69002B12D16B4B1B6808
:104D80006E4A134019007B681A69684B0A431A601F
:104D9000664B1B68DB0A07221340694ADA40694BFD
:104DA0001A60694B1B68180001F084FE031E51D085
:104DB00001237DE27B68DB68002B30D05B4B1B68F6
:104DC0005E4A134019007B681A69584B0A431A60FF
:104DD000564B1A68554B802149000A431A6001F06E
:104DE000C5FE03003B6108E001F0C0FE02003B6924
:104DF000D31A022B01D903235AE24C4B1A688023A1
:104E0000DB001340F0D0494B5B684B4A134019005C
:104E10007B685B691A02454B0A435A601BE0434BAF
:104E20001A68424B49490A401A6001F09FFE03008C
:104E30003B6108E001F09AFE02003B69D31A022BA5
:104E400001D9032334E2394B1A688023DB00134075
:104E5000F0D100E0C0467B681B680822134047D0B1
:104E6000324B9B6838221340182B0AD12F4B1B6EF4
:104E7000022213403CD07B689B69002B38D1012370
:104E800016E27B689B69002B19D0284B1A6E274BC2
:104E900001210A431A6601F069FE03003B6108E044
:104EA00001F064FE02003B69D31A022B01D90323EF
:104EB000FEE11E4B1B6E02221340F1D018E01B4B8B
:104EC0001A6E1A4B01218A431A6601F04FFE030045
:104ED0003B6108E001F04AFE02003B69D31A022B55
:104EE00001D90323E4E1114B1B6E02221340F1D1DF
:104EF0007B681B680422134000D1C7E01F23FB1806
:104F000000221A70094B9B6838221340202B1FD1B6
:104F1000064BDB6D0222134000D1B7E07B689B6833
:104F2000002B00D0B2E00123C2E1C04600100240D5
:104F3000FFFFFEFFFFFFFBFFFF80FFFFFFC7FFFF3D
:104F40000024F4000000002004000020FFFEFFFF0A
:104F5000B54BDA6B80235B05134001D1012300E0E0
:104F60000023002B11D0B04BDA6BAF4B80214905E9
:104F70000A43DA63AC4BDA6B80235B051340FB60BA
:104F8000FB681F23FB1801221A70A84B1A688023A4
:104F90005B0013401AD1A54B1A68A44B802149002D
:104FA0000A431A6001F0E2FD03003B6108E001F0F2
:104FB000DDFD02003B69D31A022B01D9032377E1FF
:104FC0009A4B1A6880235B001340F0D07B689B6883
:104FD000012B06D1944BDA6D934B01210A43DA651C
:104FE0001CE07B689B68052B0CD18F4BDA6D8E4BD8
:104FF00004210A43DA658C4BDA6D8B4B01210A439D
:10500000DA650BE0884BDA6D874B01218A43DA655C
:10501000854BDA6D844B04218A43DA657B689B6893
:10502000002B14D001F0A2FD03003B6109E001F068
:105030009DFD02003B69D31A7D4A934201D90323A7
:1050400036E1794BDB6D02221340F0D013E001F022
:105050008DFD03003B6109E001F088FD02003B6922
:10506000D31A734A934201D9032321E16E4BDB6DBE
:1050700002221340F0D11F23FB181B78012B05D10E
:10508000694BDA6B684B6B490A40DA637B681B68D3
:105090002022134039D07B68DB69002B1BD0624B88
:1050A0001A68614B8021C9030A431A6001F05EFD52
:1050B00003003B6108E001F059FD02003B69D31A8F
:1050C000022B01D90323F3E0574B1A6880231B04FA
:1050D0001340F0D019E0544B1A68534B56490A401C
:1050E0001A6001F043FD03003B6108E001F03EFD62
:1050F00002003B69D31A022B01D90323D8E04A4BA3
:105100001A6880231B041340F0D17B681B6A002BB4
:1051100000D1CCE0444B9B6838221340102B00D1C7
:105120007BE07B681B6A022B56D13F4B1A683E4BD3
:1051300042490A401A6001F019FD03003B6108E092
:1051400001F014FD02003B69D31A022B01D903239D
:10515000AEE0354B1A6880239B041340F0D1324BEC
:10516000DB68374A134019007B685A6A7B689B6A80
:105170001A437B68DB6A1B021A437B681B6B1A436A
:105180007B685B6B1A437B689B6B1A43264B0A4315
:10519000DA60254B1A68244B802149040A431A60BF
:1051A000214BDA68204B802149050A43DA6001F07F
:1051B000DDFC03003B6108E001F0D8FC02003B6924
:1051C000D31A022B01D9032372E0174B1A688023EC
:1051D0009B041340F0D06AE0134B1A68124B174936
:1051E0000A401A6001F0C2FC03003B6108E001F0D4
:1051F000BDFC02003B69D31A022B01D9032357E0FF
:10520000094B1A6880239B041340F0D1064BDA68DF
:10521000054B0C490A40DA6049E07B681B6A012BA8
:1052200012D1012344E0C04600100240007000404B
:1052300088130000FFFFFFEFFFFFBFFFFFFFFFFE30
:105240008C80C111FCFFFEEE1B4BDB687B617B6930
:1052500003221A407B685B6A9A4226D17B697022DE
:105260001A407B689B6A9A421FD17A69FE23DB0150
:105270001A407B68DB6A1B029A4216D17A69F823CE
:105280009B031A407B681B6B9A420ED17A69E0231C
:105290001B051A407B685B6B9A4206D17B695B0FEA
:1052A0005A077B689B6B9A4201D0012300E00023E0
:1052B0001800BD4608B080BD0010024080B584B023
:1052C00000AF786039607B68002B01D10123E9E0F1
:1052D000764B1B68072213403A689A421ED9734BDB
:1052E0001B68072293431900704B3A680A431A60FF
:1052F00001F03CFC0300FB6009E001F037FC020018
:10530000FB68D31A6A4A934201D90323CAE0674B68
:105310001B68072213403A689A42EED17B681B68EB
:105320000222134015D07B681B680422134006D06C
:10533000604B9A685F4BE021C9010A439A605D4B5C
:105340009B685D4A134019007B689A68594B0A4371
:105350009A607B681B680122134057D07B685B68AA
:10536000012B07D1534B1A6880239B0213402BD18A
:10537000012397E07B685B68022B07D14D4B1A68CD
:1053800080239B0413401FD101238BE07B685B6863
:10539000002B07D1474B1A688023DB00134013D141
:1053A00001237FE07B685B68032B06D1414B1B6EBA
:1053B0000222134008D1012374E03E4BDB6D022230
:1053C000134001D101236DE03A4B9B6807229343C0
:1053D00019007B685A68374B0A439A6001F0C6FB94
:1053E0000300FB6009E001F0C1FB0200FB68D31A77
:1053F0002F4A934201D9032354E02E4B9B68382255
:105400001A407B685B68DB009A42ECD1274B1B6833
:10541000072213403A689A421ED2244B1B68072287
:1054200093431900214B3A680A431A6001F09EFB2E
:105430000300FB6009E001F099FB0200FB68D31A4E
:105440001B4A934201D903232CE0184B1B68072207
:1054500013403A689A42EED17B681B6804221340DD
:1054600009D0144B9B68154A134019007B68DA6811
:10547000104B0A439A6000F029F801000D4B9B681D
:105480001B0A0F221A400E4B9200D3581F221340C2
:105490000A00DA400B4B1A600B4B1B68180001F036
:1054A00009FB03001800BD4604B080BD0020024087
:1054B0008813000000100240FFF0FFFFFF8FFFFF86
:1054C000B0F00108000000200400002080B586B084
:1054D00000AF3C4B9B68382213400FD1394B1B68FF
:1054E000DB0A0722134001229A4013003B6039680F
:1054F0003548FAF709FE03003B615DE0314B9B68DC
:1055000038221340082B02D1304B3B6154E02D4B25
:105510009B6838221340102B38D12A4BDB680322BA
:105520001340FB60274BDB681B0907221340013344
:10553000BB60FB68032B0DD1B9682448FAF7E4FD82
:10554000030019001F4BDB681B0A7F2213404B43EB
:105550007B610DE0B9681C48FAF7D6FD030019001D
:10556000184BDB681B0A7F2213404B437B61C0460C
:10557000144BDB685B0F0722134001337B607968B3
:105580007869FAF7C1FD03003B6115E00D4B9B689C
:1055900038221340202B03D180231B023B610BE0F8
:1055A000084B9B6838221340182B03D1FA23DB01E8
:1055B0003B6101E000233B613B691800BD4606B03A
:1055C00080BDC046001002400024F40000127A00A2
:1055D00080B500AF024B1B681800BD4680BDC046B9
:1055E00000000020B0B500AFFFF7F2FF0400FFF7A6
:1055F000F9FA03001A0B054B9200D3581F221340EF
:10560000DC4023001800BD46B0BDC046F0F00108E4
:1056100080B586B000AF78601323FB1800221A70A3
:105620001223FB1800221A707B681A6880239B02E1
:10563000134000D1ADE011203B1800221A70474BF7
:10564000DA6B80235B05134010D1444BDA6B434B7C
:10565000802149050A43DA63404BDA6B80235B05FE
:105660001340BB60BB683B1801221A703C4B1A68A0
:105670003B4B802149000A431A6001F077FA03008E
:10568000FB600BE001F072FA0200FB68D31A022BF8
:1056900004D91323FB1803221A7005E0304B1A6853
:1056A00080235B001340EDD01323FB181B78002BE5
:1056B0005ED12A4BDA6DC0239B0013407B617B696E
:1056C000002B19D07B681B6C7A699A4214D0234B4B
:1056D000DB6D244A13407B61204BDA6D1F4B802128
:1056E00049020A43DA651D4BDA6D1C4B1E490A401C
:1056F000DA651A4B7A69DA657B690122134016D0A4
:1057000001F034FA0300FB600CE001F02FFA020014
:10571000FB68D31A154A934204D91323FB180322BA
:105720001A7004E00D4BDB6D02221340EDD0132301
:10573000FB181B78002B0AD1084BDB6D094A13407C
:1057400019007B681A6C054B0A43DA6516E01223D0
:10575000FB181322BA1812781A700FE000100240DA
:1057600000700040FFFCFFFFFFFFFEFF88130000FA
:105770001223FB181322BA1812781A701123FB187F
:105780001B78012B05D1B64BDA6BB54BB5490A40F6
:10579000DA637B681B680122134009D0B04B5B6D54
:1057A0000322934319007B685A68AD4B0A435A653C
:1057B0007B681B680222134009D0A94B5B6D0C2249
:1057C000934319007B689A68A54B0A435A657B6826
:1057D0001B680422134009D0A14B5B6D3022934318
:1057E00019007B68DA689E4B0A435A657B681B6820
:1057F0001022134009D09A4B5B6D9B4A134019004D
:105800007B681A69964B0A435A657B681A6880233D
:105810005B01134009D0924B5B6D944A1340190011
:105820007B685A698E4B0A435A657B681A688023E5
:105830009B00134009D08A4B5B6D8D4A13401900C1
:105840007B689A6A864B0A435A657B681A6880238C
:10585000DB00134009D0824B5B6D864A1340190070
:105860007B68DA6A7E4B0A435A657B681B68202294
:10587000134009D07A4B5B6D7F4A134019007B6857
:105880009A69774B0A435A657B681B68402213402C
:1058900009D0734B5B6D794A134019007B68DA6954
:1058A0006F4B0A435A657B681A688023DB011340FB
:1058B00015D06B4B5B6D9B0099087B681A6B684B2E
:1058C0000A435A657B681A6B8023DB059A4206D12E
:1058D000634BDA68624B802149020A43DA607B68D5
:1058E0001A6880231B03134009D05D4B5B6D402277
:1058F000934319007B685A6B594B0A435A657B687E
:105900001A6880239B03134016D0554B5B6D5C4A8D
:10591000134019007B689A6B514B0A435A657B68A8
:105920009A6B8023DB039A4206D14D4BDA684C4BCD
:10593000802149040A43DA607B681A688023DB030C
:10594000134016D0464B5B6D4E4A134019007B68DE
:10595000DA6B434B0A435A657B68DA6B80235B043E
:105960009A4206D13E4BDA683D4B802149040A43F6
:10597000DA607B681A6880231B01134014D0384B0F
:105980009B6D0322934319007B681A6A344B0A43C8
:105990009A657B681B6A012B06D1314BDA68304B64
:1059A000802149020A43DA607B681A6880239B01E0
:1059B000134014D02A4B9B6D0C22934319007B6833
:1059C0005A6A274B0A439A657B685B6A042B06D1A7
:1059D000234BDA68224B802149020A43DA607B6854
:1059E0001A6880235B04134016D01D4B9B6D224A1E
:1059F000134019007B685A6C194B0A439A657B68FF
:105A00005A6C80239B019A4206D1154BDA68144BDD
:105A1000802149040A43DA607B681A6880239B046A
:105A2000134016D00E4B9B6D104A134019007B6833
:105A30009A6C0B4B0A439A657B689A6C80235B00D7
:105A40009A4206D1064BDA68054B802149040A4385
:105A5000DA601223FB181B781800BD4606B080BD23
:105A600000100240FFFFFFEFFFF3FFFFFFFCFFFF0F
:105A7000FFFFF3FFFFFFCFFFFFCFFFFFFF3FFFFF62
:105A8000FFFFBFFFFFFFFFFEB0B586B000AFF860BD
:105A9000B9603A607B60214B1B78012B01D1022356
:105AA00038E01E4B01221A701C4B00225A60172549
:105AB0007C19FA239B00180000F084F8030023707F
:105AC0007B191B78002B1FD1FB68012B06D13A688C
:105AD0007B68B968080000F0C3F805E03A68BB6865
