:020000040800F2
:1000000000400220E9820008198100081D810008D3
:1000100000000000000000000000000000000000E0
:10002000000000000000000000000000A1810008A6
:100030000000000000000000A3810008A581000866
:1000400039830008398300083983000839830008A0
:100050003983000839830008398300083983000890
:10006000AD810008BD810008CD810008E581000850
:10007000FD810008398300083983000839830008AE
:10008000398300080D8200081D82000839830008AA
:10009000398300082D820008458200083983000852
:1000A0003983000839830008398300084D8200082D
:0C00B000398300085D82000839830008D5
:1000C00010B5064C2378002B07D1054B002B02D02E
:1000D000044800E000BF0123237010BD8801002008
:1000E0000000000050F90008044B10B5002B03D0AD
:1000F0000349044800E000BF10BDC04600000000F6
:100100008C01002050F9000802B4714649084900EA
:10011000095649008E4402BC7047C04602B471467D
:1001200049084900095C49008E4402BC7047C0463A
:1001300003B47146490840004900095E49008E44F5
:1001400003BC704703B47146490840004900095A8E
:1001500049008E4403BC7047002243088B4274D38D
:1001600003098B425FD3030A8B4244D3030B8B42B8
:1001700028D3030C8B420DD3FF22090212BA030CC1
:100180008B4202D31212090265D0030B8B4219D3A2
:1001900000E0090AC30B8B4201D3CB03C01A5241C2
:1001A000830B8B4201D38B03C01A5241430B8B420A
:1001B00001D34B03C01A5241030B8B4201D30B03F3
:1001C000C01A5241C30A8B4201D3CB02C01A52411A
:1001D000830A8B4201D38B02C01A5241430A8B42DD
:1001E00001D34B02C01A5241030A8B4201D30B02C6
:1001F000C01A5241CDD2C3098B4201D3CB01C01AE0
:10020000524183098B4201D38B01C01A52414309E9
:100210008B4201D34B01C01A524103098B4201D3D7
:100220000B01C01A5241C3088B4201D3CB00C01A44
:10023000524183088B4201D38B00C01A52414308BC
:100240008B4201D34B00C01A5241411A00D20146E1
:10025000524110467047FFE701B5002000F0F0F86A
:1002600002BDC0460029F7D076E7704703460B432E
:100270007FD4002243088B4274D303098B425FD39F
:10028000030A8B4244D3030B8B4228D3030C8B42CB
:100290000DD3FF22090212BA030C8B4202D31212B1
:1002A000090265D0030B8B4219D300E0090AC30B86
:1002B0008B4201D3CB03C01A5241830B8B4201D333
:1002C0008B03C01A5241430B8B4201D34B03C01A1C
:1002D0005241030B8B4201D30B03C01A5241C30A94
:1002E0008B4201D3CB02C01A5241830A8B4201D305
:1002F0008B02C01A5241430A8B4201D34B02C01AEF
:100300005241030A8B4201D30B02C01A5241CDD293
:10031000C3098B4201D3CB01C01A524183098B42DE
:1003200001D38B01C01A524143098B4201D34B01C7
:10033000C01A524103098B4201D30B01C01A52412A
:10034000C3088B4201D3CB00C01A524183088B42B1
:1003500001D38B00C01A524143088B4201D34B009A
:10036000C01A5241411A00D201465241104670470C
:100370005DE0CA0F00D04942031000D34042534011
:1003800000229C4603098B422DD3030A8B4212D3D1
:10039000FC22890112BA030A8B420CD38901921103
:1003A0008B4208D3890192118B4204D389013AD040
:1003B000921100E08909C3098B4201D3CB01C01A15
:1003C000524183098B4201D38B01C01A5241430928
:1003D0008B4201D34B01C01A524103098B4201D316
:1003E0000B01C01A5241C3088B4201D3CB00C01A83
:1003F000524183088B4201D38B00C01A5241D9D29B
:1004000043088B4201D34B00C01A5241411A00D21B
:100410000146634652415B10104601D34042002B17
:1004200000D54942704763465B1000D3404201B596
:10043000002000F005F802BD0029F8D016E770474B
:100440007047C046844608006146FFE71FB500F0CC
:1004500059FC002801D40021C8421FBD10B500F08E
:10046000D9FB4042013010BD10B500F04BFC002814
:1004700001DB002010BD012010BDC04610B500F00A
:1004800041FC002801DD002010BD012010BDC04648
:1004900010B500F0E7FB002801DC002010BD0120B2
:1004A00010BDC04610B500F0DDFB002801DA0020C9
:1004B00010BD012010BDC046002B11D1002A0FD164
:1004C000002900D1002802D00021C943080007B448
:1004D000024802A14018029003BDC04665FFFFFF1D
:1004E00003B4684601B5029800F01EF8019B9E46D1
:1004F00002B00CBC7047C0469E2110B5C905041C53
:10050000FFF7D0FF002803D1201C00F041FF10BDF1
:100510009E21201CC90500F081FD00F039FF8023D9
:100520001B069C466044F2E7F0B557464E464546EA
:10053000DE46E0B504000D009246994683B08B423A
:1005400030D82DD04946504600F0EEFF2900060075
:10055000200000F0E9FF331A9846203B34D49B4634
:1005600053465A46934042461F00534693401E004E
:10057000AF423BD8AF4200D179E05B46A41BBD41FE
:10058000002B00DA76E00022002300920193012381
:100590005A4693400193012342469340009329E039
:1005A0008242CFD900220023009201930C9B002BA2
:1005B00001D01C605D600098019903B0F0BCBB469F
:1005C000B246A946A046F0BD42469B4620239B1A50
:1005D0005246DA40414613004A468A4017004246D6
:1005E0001F43534693401E00AF42C3D9002200234D
:1005F000009201934346002BD8D0FB0772081A43A0
:1006000046467B080EE0AB4201D1A2420CD8A41AA8
:100610009D41012024196D410021013E24184D41C6
:10062000002E06D0AB42EED9013E24196D41002EBA
:10063000F8D1009801995B4600196941002B24DB31
:100640002B005A464446D3402A00E2401C005B4639
:100650001500002B2ADB26009E403300260047466B
:10066000BE403200801A9941009001919EE7A3425A
:10067000BCD882E74246202300219B1A0022009129
:1006800001920122DA40019285E7424620239B1A1B
:100690002A0046469A402300F340444613432A006A
:1006A000E2401C005B461500002BD4DA42462F00C6
:1006B0002023260097409B1ADE403B003343CDE7C2
:1006C000F8B5CE46474643025A0A4E024500C40FCB
:1006D000480091462D0E720A000E944680B59B0983
:1006E000C90FB6092A1A8C4221D0002A0DDD002834
:1006F0002DD1002E00D18DE0511E012A00D11DE127
:10070000FF2A00D1ABE00A0027E0002A4DD0421BAF
:10071000002D00D0CCE0002B00D179E0541E012A3E
:1007200000D128E1FF2A00D197E02200C5E0002A8D
:1007300000DC96E000284FD0FF2D00D18FE0802113
:10074000C9040E431B2A51DD2A00013318E0FF2D96
:1007500000D184E08021C9040E4301211B2A08DC5A
:1007600031002020D140821A96403200501E824132
:1007700011435B1A5A0159D407212A00194049D064
:100780000F211940042900D00433590142D5501CCF
:10079000FE2A3AD09B01C0B25B0AC0051843E407A9
:1007A0002043C0BCB946B046F8BDFE2080466F1C51
:1007B00038004746074200D08EE0002D00D0B4E05C
:1007C000002B00D1DBE0002E6CD0981B450100D43B
:1007D000F7E00C00F31A3DE0002E1BD0511E012A59
:1007E00000D182E0FF2A3AD00A00ABE73100202096
:1007F000D140821A96403200501E82410A439B1813
:100800005A01B9D56A1CFE2D75D1FF200023C4E71B
:100810000C003300DB08FF2A46D1002BF5D08022E4
:10082000D20313435B02FF205B0AB6E79F01BF09B7
:10083000380000F05BFE05388740854224DC3B0031
:100840002021421B0132D3408A1A97407A1E9741D9
:1008500000223B43590793D197E70C003300DB0894
:10086000DBE7002A14D0421B002D4BD1002BD0D047
:10087000511E012A00D19EE0FF2AEFD00A001B2A58
:100880005FDD0200731C7BE7504B2A1A3B40E1E717
:10089000FE216A1C11423BD1002D5DD1002B7FD07F
:1008A000002E7FD10022DB085B025B0AD0B274E726
:1008B000FF28D2D08024E404234301241B2A07DC30
:1008C0001C002025D440AA1A93405A1E93411C4371
:1008D000331B05000C004DE79F1B7A0122D4002F2B
:1008E000A6D100240020002357E79B1901250132DF
:1008F000590100D440E70121354819405B08034005
:100900000B43A7E7FF28A9D08021C9040B43B6E712
:10091000FF2A00D179E79B195B08590700D02FE720
:10092000DB08C1E70C00F71A82E7002B2CD1002E60
:1009300093D180230024FF20DB032EE701259B1B9E
:1009400018E719002025D140AA1A93405A1E934156
:100950000B4305009B1953E7002B00D17EE7002EC7
:1009600000D17CE78022D203914502D3944500D286
:100970003300DB0853E70C00F31A0135FAE6002ECA
:10098000AFD00C0033008DE7002E00D167E7802246
:10099000D2039145EDD39445EBD20C003300E8E748
:1009A00033007FE79B1900225901B9D5074A13404C
:1009B000DB08012278E79B190132013559019AD4ED
:1009C000DAE6031E8DD0DB086EE7C046FFFFFFFBB3
:1009D000FFFFFF7DF0B54F464646D6464402C0B500
:1009E00047000E1C640A3F0EC50F002F3CD0FF2F9E
:1009F00042D00023802299469A46E400D204144350
:100A00007F3F73025B0A984673001B0EF60F002BA4
:100A10001BD0FF2B13D042468021D200C9041143C2
:100A2000884600207F3B2900FF1A4B467140C9B21F
:100A30000F2B00D9B5E0744A9B00D3589F4643461C
:100A4000002B3FD1FF3F023303E04346002B2DD163
:100A5000012329004A467140C9B21A430E2A38D8E8
:100A60006A48920082589746002C13D10423994675
:100A7000033B00279A46C4E7002C05D1082399467A
:100A8000063BFF279A46BCE70C239946093BFF2704
:100A90009A46B6E7200000F029FD7627431F9C40C8
:100AA00000237F4299469A463F1AAAE7404600F043
:100AB0001DFD4246431F9A4076235B421B1A904617
:100AC0000020B0E703234A461A4391460320FC3333
:100AD000A9E70D00FF200022C005ED0710432843C1
:100AE000E0BCBA46B146A846F0BD0D000020002289
:100AF000F2E75346022BEDD0032B33D0A046012B57
:100B000005D100200022E7E7350003287AD03B001A
:100B10007F33002B2DDD4246520707D00F2241467E
:100B20000A40042A02D004229446E04442461201BC
:100B300005D54246364B1A403B0090468033FE2B8B
:100B4000C8DC42469201520AD8B2C5E7802200258D
:100B5000FF20D203C0E78022D203144202D04346D2
:100B6000134249D08022D20322435202FF20520A6C
:100B7000B2E70122D31A1B2BC3DC4246DA404346BC
:100B80009E37BB40591E8B411A43530704D00F2395
:100B90001340042B00D00432530129D50120002238
:100BA0009AE7424663015501AB4215D21B20002251
:100BB000013F01261C0052005B00002C01DB9D421E
:100BC00001D85B1B324301380028F3D1581E834102
:100BD000134398460D009AE71A2001225B1BE8E7B1
:100BE000023B5A4253415B4235000022D8B273E7C0
:100BF00092010020520A6FE71A4352023500FF208B
:100C0000520A69E74446ADE7A0F90008E0F9000898
:100C1000FFFFFFF770B542004E024C0045026D0A1F
:100C2000120EC30F760A240EC90FFF2A10D0FF2C14
:100C30000CD00120A2420AD1B54208D18B420FD07C
:100C4000002A04D12800431E984100E0012070BD15
:100C50000120FF2CFBD13543F9D14B401800F6E7BA
:100C60000020F4E730B5420044024D02C30F4800B3
:100C7000640A120E6D0A000EC90FFF2A19D0FF2850
:100C80000BD0002A1ED100280BD1002D27D0002C1C
:100C900034D100292FD0080030BD002D28D1002AE2
:100CA00001D1002CF5D08B4207D1002B23D01800A6
:100CB000F2E7002C1CD1FF2814D0581E0223184044
:100CC0000138E9E70028F8D08B42F6D18242F4DC03
:100CD000EBDBAC42F1D80020AC42DDD2E5E7002CE2
:100CE000DAD0EAE7002D03D18B42E6D10020D3E72A
:100CF00002204042D0E701204042CDE78B42E8D0BD
:100D0000DBE7C04630B5420044024D02C30F480045
:100D1000640A120E6D0A000EC90FFF2A1AD0FF28AE
:100D20000ED0002A1ED100280ED1002D2AD0002C72
:100D30000CD08B421DD0581E02231840013810E001
:100D4000002D0DD1002A20D1002C1ED1002923D046
:100D5000080006E0002C03D1FF28ECD1002D17D0AD
:100D6000022030BD0028E6D08B42E4D18242E2DC92
:100D700004DBAC42DFD80020AC42F2D2002B0BD017
:100D80001800EEE7002CECD0D5E78B42D3D1F5E785
:100D900000208B42E5D0CEE701204042E1E7C0468B
:100DA000F0B54F464646D64643025B0A4500C0B5FD
:100DB00099460F1C2D0EC60F002D00D188E0FF2D87
:100DC00000D18DE08022DB00D2041A43002391463B
:100DD00098469A467F3D7C027B00640A1B0EFF0FFB
:100DE000002B68D0FF2B21D08022E400D2041443D2
:100DF00042467F3B5B1900215D1C0A2A2EDC7E40A7
:100E00004246022A23DC013A012A00D9BDE0022928
:100E10006ED001292CD100200022C005F607104316
:100E20003043E0BCBA46B146A846F0BD2B00FF33C4
:100E3000002C65D00322414611433200013588461B
:100E40007A40FF350A2900DDD8E01600032140462C
:100E500001228240A620C000024220D05346022B2D
:100E600046D0032B00D1BBE051464C460129D2D0DD
:100E70002B007F33002B70DD620704D00F2222404D
:100E8000042A00D00434220103D5634B1C402B00FC
:100E90008033FE2B2CDCA201520AD8B2BDE7902091
:100EA0008000024227D1B938FF3810426DD03E0091
:100EB000A1468A46D2E7002C41D1012342461A437B
:100EC00090462B00424601215D1C0A2A97DDC5E7AA
:100ED000002B26D104239846033B00259A467AE747
:100EE000002B18D108239846063BFF259A4672E747
:100EF000FF20002291E780220026FF20D2038CE70A
:100F000041460222013511438846FF350A29A5DCF6
:100F100002217E4074E70C239846093BFF259A4640
:100F200059E7180000F0E2FA4A46431F76259A4036
:100F300000236D42914698469A462D1A4BE72000B1
:100F400000F0D4FA4246431F9C402B1A763B002106
:100F50005D1C0A2A00DC52E780E70122D31A1B2B12
:100F600000DD58E79E352200AC40DA40631E9C410C
:100F70002243530704D00F231340042B00D0043224
:100F8000530137D50120002247E7210C4A462404AB
:100F9000240C2700100C1204120C444357434843FE
:100FA00051433A0C09195218944203D9802149023D
:100FB0008C4660443F0411043F0CC9198C01671E24
:100FC000BC41120C890E12180C43920114431201F9
:100FD0000ED5012362081C40144349E73E00A14698
:100FE00080224B46D2031A435202FF20520A14E7D2
:100FF0001D003DE792010020520A0EE70F29EDD1B6
:1010000080224B46D2031342EAD01442E8D13E007C
:10101000FF20224301E7C046FFFFFFF7F8B5474630
:10102000CE464E0243024500720AC40F480080B506
:1010300094465F0A2D0E9B09000EC90FB609FF28C2
:1010400024D0012251402A1A8C420FD0002A00DC01
:101050006AE1002835D1002E00D1A2E0511E012AFC
:1010600000D124E1FF2A21D00A002FE0002A00DC71
:1010700067E100285ED0FF2D18D08021C9040E43FF
:101080001B2A00DC76E02A00013332E02A00FF3A16
:101090009146002E42D08C4255D04A46002A00D1BB
:1010A0009CE0002D00D177E00C003300DB08002B22
:1010B00000D16EE08022D20313435B02FF205B0A63
:1010C00024E0FF2DF2D08021C9040E4301211B2A08
:1010D00008DC31002020D140821A96403200501E98
:1010E000824111435B1A5A0160D407212A0019403A
:1010F00057D00F211940042900D00433590150D58D
:10110000501CFE2A45D09B01C0B25B0AC0051843A3
:10111000E4072043C0BCB946B046F8BD01225140A7
:101120008C42BAD14A46002A10D0002D00D198E056
:101130000023BBE7002E34D0511E012A6ED0FF2AB7
:10114000B4D00A009CE7002A00D088E0FE206A1C88
:10115000104200D092E0002D00D0A4E0002B00D17E
:10116000CBE0002E00D0CAE00022DB085B025B0A65
:10117000D0B2CBE731002020D140821A9640320015
:10118000501E82410A439B185A01AED56A1CFE2D9F
:101190004AD1FF200023B9E7FF22002B4BD10C00DE
:1011A0003300DB08FF2A00D181E7DFE79F01BF0999
:1011B000380000F09BF905388740854221DC3B0070
:1011C0002021421B0132D3408A1A97407A1E974150
:1011D00000223B43590700D08BE78FE7FE206A1CB3
:1011E000104212D1002D52D1002B7CD0002EBBD04A
:1011F0009A1B500100D48BE001240022F31A0C400A
:10120000E8E7564B2A1A3B40E4E79F1B7A0146D495
:10121000002FCDD100240020002377E79B19012562
:101220000132590100D460E701214D4819405B08A3
:1012300003400B43CEE7571E012A5AD00C00FF2A69
:1012400033D001221B2F07DC2021C91B1A008B4041
:10125000FA40591E8B411A430500B31A43E7002D8B
:1012600023D1FF22002B9BD0511E012AD6D0FF2A6A
:101270001BD01B292CDD0200731C3AE7FF2A88D003
:101280009B195B08590700D033E7DB086EE7002B9A
:1012900010D1002E43D0012433000C4006E7012476
:1012A000F71A0C4084E7002B04D13300FEE6012539
:1012B0009B1B18E7002E00D1F8E68022D20397424C
:1012C00004D3944502D2012433000C40DB08F1E63C
:1012D0001A002025CA40691A8B40591E8B411343BE
:1012E00005009B1950E7002E94D0012433000C40D8
:1012F0003AE70C000125F31AF5E6330034E79B19B1
:1013000000225901C1D5154A1340DB0801222DE7FF
:10131000002A00D17EE713000022DB0826E78023A5
:101320000024FF20DB03F1E6002A00D156E7471B2B
:101330003A00002D00D130E78022D2040C00134384
:101340007FE7002A00D101E7411B002D01D10A00EF
:1013500088E78022D20413438BE7C046FFFFFFFBE0
:10136000FFFFFF7D43024A02400049005B0A520A28
:10137000090E000EFF2806D00020FF2902D1531EBF
:101380009A4110007047FE38002BFBD1F4E7C046AD
:1013900041024200C30F490A0020120E7E2A03DDDB
:1013A0009D2A02DD094A98187047802000040143F5
:1013B000952A07DC9620821AD1404842002BF3D1AF
:1013C0000800F1E7963A9140F7E7C046FFFFFF7F3C
:1013D00070B5002813D0C317C5185D40C40F28008E
:1013E00000F084F89E2301001B1A962B0FDC0828BE
:1013F00034D008398D406D026D0AD8B202E0002465
:1014000000200025C0052843E407204370BD992B28
:1014100016DC421F052800D095402A0011480240E2
:101420006E0709D00F263540042D05D00432550132
:1014300002D59F2302405B1A9201550AD8B2E1E718
:101440000522121A2800D040020008001B308540F7
:101450002800451EA84102431500DEE76D029620D4
:101460006D0ACFE7FFFFFFFB70B5041E0ED000F042
:101470003DF89E2301001B1A962B0CDC08282FD068
:1014800008398C406402640AD8B201E000200024CC
:10149000C005204370BD992B16DC421F052800D0E3
:1014A0009440220010480240650709D00F252C40C7
:1014B000042C05D00432540102D59F2302405B1A4C
:1014C0009201540AD8B2E3E7020020001B32904098
:1014D0000200501E82410520401AC4401443E0E738
:1014E00064029620640AD3E7FFFFFFFB1C2101235F
:1014F0001B04984201D3000C10391B0A984201D3F7
:10150000000A08391B09984201D30009043902A2D4
:10151000105C40187047C04604030202010101013B
:10152000000000000000000010B5002903D1FFF703
:10153000DDFF203002E00800FFF7D8FF10BDC046F5
:101540000023C25C0133002AFBD1581E704770474C
:101550000A2382B00193019B002B07D1054BC000E9
:10156000C01800688001800D02B07047019B013BEC
:10157000F0E7C046009800400A2382B00193019B27
:10158000002B07D1054BC000C01840688001800DBA
:1015900002B07047019B013BF0E7C0460098004055
:1015A00073B504000120002C2FD0244D635DDAB206
:1015B000002B05D1A5239B002000E25405F0DCFDA3
:1015C00003236355206800F0EDFD0023220019007D
:1015D000012620791432984218D1002122000800F7
:1015E0005532FF328B421BD16B46227C1A70E36866
:1015F0006168A268206800F0DDFD00236374013398
:101600006355237B012B15D0002076BD1370013369
:101610005670D170116151619161DBB22832DAE705
:10162000117001315070D070106150619061C9B279
:101630002832D7E7200000F09AFDE5E79502000088
:1016400070B5A525AD00435D04000220012B09D033
:1016500001236355206800F09DFD206800F0D4FF51
:101660000020605570BD70B5A525AD00435D040038
:101670000220012B07D0012363552068617400F01C
:10168000BDFF0020605570BDF0B5040089B0006852
:1016900000F0C1FF0422CB4B1B6813426AD08025A7
:1016A00080232D021B020540184200D1C5E3802291
:1016B000256812026B6C13425CD00F226B6C1A40CF
:1016C00019000192082211400691134252D1019A49
:1016D000002A00D090E0102619003140334221D179
:1016E0002B68B94A200013408022120213432B605A
:1016F000237DB64ADB009B181B68A26A9B019B0DE9
:101700002363D318A36205F092FD637C002BCED037
:10171000E26A2168002ACAD18020637C0343CB643B
:101720006274C4E72B6880221F0012011740134225
:1017300033D0AA235B00E05CFFF71EFF2200553286
:10174000FF320300A24FD061082815D02A68A14BB0
:10175000A1491A4080235B015340A04A13432B60E8
:101760002B680B405E40802332432A602A683A404F
:1017700013432B6009B0F0BDA72189002800611830
:10178000D28801F0EFF88023216820000A683A40EF
:1017900013430B6005F036FD89E71B0400D486E790
:1017A0002A688B4B26001A40802313432B60AA2300
:1017B0005B00E05CFFF7E0FE5536FF36031EF0618C
:1017C00009D12B68834A1340C02292015A40834BAF
:1017D00013432B606BE77169002900D167E728008C
:1017E000F28801F0BFF87369F26939009B18200094
:1017F000736105F010FD5AE7019B9B000593EB1800
:101800001A6804926A46128A0292049A120400D458
:101810007FE019686E4A2826114080220A431A6028
:10182000019B5E43A619330032006133FF331B78FE
:101830005532FF32002B0CD11078FFF79DFE071EAA
:101840004FD033005B33FF33FC361A88F16E3B0018
:1018500044E01378039333005833FF331B78022B93
:1018600000D0DAE08023029ADB011A400792029A44
:101870000398FC361A4200D18DE0FFF769FE326F03
:101880000300070082420ED2069A3267039A51483B
:101890009200AA18116801408020800148404F49F9
:1018A0000143116002E0121A3267EFD0029A520629
:1018B00008D5039A4A499200AA1810680840494975
:1018C00001431160002B0CD02821019A514361186B
:1018D0000A005D32FF32FC311288C96E280001F027
:1018E00041F82822019951436318FC33586FC019FD
:1018F0005867186F002803D0986E874200D3ABE07A
:10190000019B20005A43A2185532FF32117805F08E
:1019100082FC23680393049B1B0600D4C7E6039A4A
:10192000059B944663441A6827490A4080210902AE
:101930000A431A602823019959436618F27D0592DB
:10194000012A00D0BAE0019A013253430022E31881
:101950005A60731CDB7F934214D0049B5B0600D457
:101960008FE0737D934200D080E0337D174ADB0027
:101970009B181A68920192091A608022196812064F
:101980000A431A602823019A5343E318197D200063
:1019900005F04DFC8BE6FFF7EFFD326F030007000B
:1019A000824221D2079A3267039A0A489200AA1803
:1019B00011680140802080014840084901431160BE
:1019C00015E0C046A00001400F8FFF0700980040BF
:1019D0008F0FFF078FBFFF07BF8FFF0780800000BB
:1019E0008F8FFF07C0800000121A3267DCD0029A86
:1019F000520608D4039AD7499200AA1810680840E2
:101A0000D54901431160002B00D16AE72821019AD2
:101A1000514361180A005F325CE7039BCD499B008C
:101A2000EB1818680840CC4901431960107883000E
:101A3000EB181B685B0407D5FFF78AFD071E00D172
:101A40004FE733005D33FEE6FFF796FD071E00D13A
:101A500047E733005F33F6E6DA6E5531D219FF31CE
:101A60002068DA66611800F00DFE52E7012B89D17B
:101A7000337DBA4ADB009B181A6892B21A601A6862
:101A80007FE7737D002B0DD1337DB44ADB009B18BB
:101A90005A68920192095A608022596812060A43D4
:101AA0005A606FE7012B00D06CE7337DAB4ADB0057
:101AB0009B185A6892B25A605A68F1E780230498DA
:101AC000049A5B00357D18401A4219D1A34AEB00F5
:101AD0009B181B68F26A9B019B0D9A4202D8290051
:101AE000F06254E7D21AF262B26A1431D218B262CA
:101AF000326B0398D3183363611800F0C3FDD6E549
:101B00004023029F029A28001F401A4200D1D2E0CF
:101B1000FFF71EFDF26A0023824200D9131A8022C9
:101B2000029FD201F3621740002B4DD1019A283356
:101B30005343E3185B7D002B36D18021874AEB00AD
:101B40009B181A680906920192091A601A680A43DA
:101B50001A605A68920192095A605A681143596092
:101B6000059B022B0AD1039AAB00D3181A687C4953
:101B70000A40202151407B4A0A431A602900200074
:101B800005F055FB002F00D191E52823019A53431E
:101B9000E3181A7D236892009B1819686D4A11405A
:101BA000714A0A431A6082E5012BD9D16B4AEB00D6
:101BB0009B181A6892B21A601A681A605A6892B230
:101BC0005A605A685A60CBE7002F08D0039AAB00DE
:101BD000D31819685F4A1140634A0A431A602822E1
:101BE000019B5A43A218170038373B78012B29D1A3
:101BF000916A09189162336B1B183363566B536AF1
:101C00009E422ED3F61A5663282201984243A21808
:101C1000527D002A44D1514AED00AD182A68920144
:101C200092092A60002B26D18022286812060243DE
:101C30002A60282201989BB24243A218928B0398F3
:101C400000F0ECFC2823019A45495343E3181A7D20
:101C5000236892009B181A680A4030215140414A7B
:101C60009FE7002E02D103003E70CDE700233B70BA
:101C700053633300C8E73E2B06D801205A081840AA
:101C8000121892062868D2E71F2018404642704179
:101C90005A09121A28689206024380200006C6E7F5
:101CA000012AC6D12D4AED00AD182A6892B22A60E9
:101CB00028681A04BBE7FFF75FFCF26A3B00824228
:101CC00000D3131A8022029FD201F3621740002B27
:101CD0004CD1019A28335343E3185B7D002B28D164
:101CE00080211E4AEB009B181A680906920192098E
:101CF0001A601A680A431A605A68920192095A6077
:101D00005A6811435960059B022B0AD1039AAB0014
:101D1000D3181A6812490A4020215140114A0A4337
:101D20001A602900200005F082FA002F00D0BEE4DE
:101D30002BE7012BE7D1094AEB009B181A6892B2F6
:101D40001A601A681A605A6892B25A605A685A60E1
:101D5000D9E7C0468F8FFF07C08000000098004081
:101D6000BF8FFF078080000080C00000002F08D1D7
:101D7000039AAB00D3181968704A1140704A0A439D
:101D80001A602822019B5A43A218170038373B7863
:101D9000012B00D056E7916A09189162336B1B182A
:101DA0003363566B536A9E421DD3F61A566328223C
:101DB00001984243A218527D002A33D1614AED00B6
:101DC000AD186A68920192096A60002B15D18022D1
:101DD0006868120602436A60282201989BB2424357
:101DE000A218D28B2BE7002E02D103003E70DEE753
:101DF000002353633B703300D9E73E2B06D8012004
:101E00005A081840121892066868E3E71F20184025
:101E1000464270415A09121A6868920602438020AD
:101E20000006D7E7012AD7D1464AED00AD186A6807
:101E300092B26A6068681A04CCE743050CD5226840
:101E40004149536C20000B40536405F002FA29000D
:101E50002000FFF708FC8DE4430405D522683B49C8
:101E6000536C0B40536485E4802301009B011940AF
:101E7000184203D022683649536CF2E7C30417D5E1
:101E80002368186C9043186408201A6C82431A6403
:101E9000B3239B00E25C012A03D12000E15405F04A
:101EA000B7FA200005F0F8F922682A49536CD8E700
:101EB00003050FD508212368186C01431964596C78
:101EC000254801405964196C0A431A64200005F042
:101ED000D1F94FE403061DD523682048596C014011
:101EE000B32059648000215C0029EFD1196C0A43AA
:101EF0001A640822196C0A4301211A643C222154F5
:101F00005B6D20009B081340B4229200A35005F0A3
:101F10007FFA2FE4830509D522681149536C20000C
:101F20000B40536405F08EF9FFF724FCC00501D483
:101F3000FFF720FC22680B49536C92E78F8FFF0755
:101F400080C0000000980040FFFB0000FFBF0000C1
:101F5000FFDF0000FFEF0000FFF700007FFF000041
:101F6000FFFD0000FFFE000070B5040007200D001B
:101F70000840282141436DB26618002D1ADA012568
:101F80001431611875755205520D08700A61CB70D5
:101F9000022B01D100230B71A525AD00635D02204A
:101FA000012B06D001236355206800F019F90020A9
:101FB000605570BD002555315636FF31FF3661182A
:101FC0003570E0E707220B000A40282151435BB23D
:101FD00070B504004018002B12DA01231431611887
:101FE0004375A5250A70AD00635D0220012B06D064
:101FF00001236355206800F03BFA0020605570BD56
:10200000002355315630FF31FF3061180370E8E787
:10201000F8B50724214021344C4306193700FC371A
:102020003B6733000025563355365534FF33FF36B2
:10203000FF347D67FA661D7031700119006800F089
:1020400021FB2800F8BD07230B40282159434018E5
:10205000FC30406F704770B50724214021344C4359
:1020600006193500B26201223835F3622A70002564
:10207000143435633175736372750119006800F0AB
:1020800001FB280070BD072270B5037904000A40E7
:102090000120934219D348B22823002816DA53436B
:1020A000190001201431E318611858750123A52582
:1020B0008B700A70AD00625D02209A4205D06355B4
:1020C000206800F045FA0020605570BD4B431900B0
:1020D0000020E31855315633FF31FF336118187073
:1020E000E4E70B000F2270B5017904001A400120CB
:1020F00091421BD3072228211A4051435BB260183A
:10210000002B14DA01231431611843750025A5262C
:102110008D700A70B600A35D0220012B06D001234A
:10212000A355206800F032FA2800A55570BD0023A1
:1021300055315630FF31FF3061180370E6E730B596
:1021400028240D060BD5072529404C4314340019CB
:1021500099B2002A07D10273C180002030BD4C43E0
:102160005534FF34F3E7012283600273F5E7026818
:102170000300B520012110B58000B32419500020C0
:10218000A4001855536D194302235165516D0B433B
:10219000536510BD03000020014A58641A6470475B
:1021A00080BF0000036C024A1340036400207047A4
:1021B0007F40FFFF84B010B50492012202640593B2
:1021C000036C040093430364036C03919340D34076
:1021D00003640020606410BC08BC04B01847000011
:1021E000F7B501240E78B300C3181A689648024068
:1021F000C8780094032807D8FDF790FF023A3734D7
:102200008024A40022430090904C914D22431A60F8
:102210001A68904F2A40324322431A60F200D219C2
:102220000F7B002F66D1CF88BF08BF0001974F7882
:10223000002F25D01168019E090C09041160116856
:10224000314311601A68520604D51968824A294040
:102250000A431A60814D01280CD0202219682940B8
:102260004A4009E0C024E400224300240094CBE764
:102270008024F8E71A682A4022431A600098FEBDBD
:102280005068019F000C0004506050680969384391
:1022900050605068800180095060002905D1506865
:1022A000802109060143516009E03E2918D8012721
:1022B00048083940401851688006084350601A6841
:1022C000520404D51968664A29400A431A60654ACF
:1022D00019681140C022002E00D080229201BFE771
:1022E0001F27480939404F427941401A51688006FA
:1022F0000843D5E702284AD11F685B4E2F403E4372
:102300001E601668360C360416600E891768B6080B
:10231000B6003E4316605668360C360456604E8949
:102320005768B608B6003E4356604E784D4F01964A
:102330004A4EB446019E002E62D180261868F601EE
:10234000304204D01E6846482E403043186018685A
:10235000400604D5186805403F48284318601068B7
:102360000969800180091060002915D18020156855
:1023700000062843106050688001800950600029E1
:102380001FD15068802109060143516023E01E6877
:10239000364F3E402643B3E73E2906D8012548087C
:1023A0000D40401980061568E3E71F250D406E4279
:1023B00075414809401B15688006284380252D0675
:1023C000D7E73E2912D8012548082940401851680E
:1023D000800608435060C0221968920139404A4083
:1023E000614622431A601A680A4045E71F254809DA
:1023F00029404D426941401A516880060843C1E7AF
:1024000080211A68C9010A4204D01968144A294077
:102410000A431A601A68520604D519680E4A294000
:102420000A431A6001280BD0624619681140202225
:102430004A4022431A601A683A4014431C601DE760
:1024400061461A680A40F4E78F89FF078080000020
:102450008F8FFF0700980040C0800000BF8FFF07EC
:1024600080C000008FBFFF07808100008F8EFF07B4
:10247000F0B50B780A7B9B00C0184E782E4B002AD3
:102480001CD10268002E0ED0520605D501682B4AD9
:1024900011402B4A0A43026002682A490A4013434A
:1024A00003600020F0BD520405D50168234A1140A5
:1024B000254A0A43026002682449EFE780211F4A47
:1024C000204D224CC901002E1AD106680E4204D0BC
:1024D00006681D491640314301600168184E4906DF
:1024E00003D5016811403143016001680A40164379
:1024F0000660026822401A43026002682A40CEE762
:102500000768114E0F4203D001681140314301604A
:102510000168490604D50768094917403943016035
:1025200001680A401643066002682A401A430260A6
:1025300002682240B3E7C046808000008F8FFF070B
:10254000C0800000BF8FFF0780C000008FBFFF0763
:102550000B780B4A9B00C0184B780168002B07D002
:10256000084B194010234B40134303600020704771
:10257000054B194080235B014B401A430260F5E78D
:1025800080800000BF8FFF078FBFFF070B789B0085
:10259000C0184B78002B15D003685B0605D5026880
:1025A000104B1A40104B13430360CB78012B07D01C
:1025B0000E4A0368134020225A400D4B1343036018
:1025C0000020704703685B0405D50268054B1A407C
:1025D000084B13430360084A03681340C02292016A
:1025E000EAE7C0468F8FFF07C0800000BF8FFF075C
:1025F0008080000080C000008FBFFF07002901D14C
:102600008023C364002070478023826D1B02134324
:10261000836500207047406C70470000F7B50324C5
:10262000D81C23401C00651EAC418008001B144CC4
:102630000D00121904000192002C0FD1002B0CD0B8
:102640002500800009184E5DEF00BE40013534437F
:10265000AEB2B342F7D112181460F7BD2E78013C28
:10266000B44667466E7836023E43AF783F04374340
:10267000EE78043536063E43019F40C70197DBE7FD
:1026800000980040F0B54A7806000C000B7B85B03E
:10269000012A00D00DE10F698D69BD4200D93D00CE
:1026A00062690192002B1ED1ABB2E2883000019921
:1026B000FFF7B4FF2378A24ADB009B181A682D04A9
:1026C00092B21A601A6815431D6023789D4A9B00D8
:1026D000F3181968114030224A409B490A431A6096
:1026E000002005B0F0BD20789549C2005218E1786D
:1026F0008000236A3018022900D0C3E09F4200D333
:10270000B0E00768914B1F40914B3B430360236A45
:102710005B1B2362036840209C4661460340029392
:10272000019B5F192B040393ABB201424ED050685A
:10273000290480B250605068084350606289019952
:102740003000FFF76BFF236A2169002267618B422B
:1027500001D95A1B2B0022626278002A2AD12278E2
:102760007749D20052181168890189091160002B3C
:102770000BD18021106809060143116022899BB2A8
:1027800039003000FFF74AFF9FE73E2B06D80120B3
:1027900059081840091889061068EDE71F201840ED
:1027A000454268415909091A106889060143802089
:1027B0000006E1E7012AE1D122786149D2005218EE
:1027C000116889B2116010681904D5E710682904EE
:1027D00080B21060106808431060228930000199AF
:1027E000FFF71CFF236A22696761934202D95B1BD2
:1027F00002932B00029A22626278002A26D1227864
:102800004F49D20052185168890189095160002B43
:1028100007D18021506809060143516062899BB24B
:10282000AEE73E2B06D80120590818400918890642
:102830005068F1E71F201840454268415909091ABC
:1028400050688906014380200006E5E7012AE5D1AA
:1028500022783B49D2005218516889B251605068C1
:102860001904D9E705683B4F37493D400D430560E2
:10287000106880B2106015681804284310609BB27D
:1028800022890DE05B1B236200682F04ABB2400677
:1028900008D5506880B250605068384350606289F3
:1028A00001996EE7106880B21060106838431060BC
:1028B000E6E7002B26D10B788A699B00C318002A13
:1028C0001BD1CA78002A18D1204A19681140204A21
:1028D0000A431A60A369226993422ED99B1AA36105
:1028E00023781D4A9B00F61833681340C0229201DA
:1028F0005A40154B13433360F2E6164A19681140EB
:10290000114AE5E7CB78022B13D1CB69002BE7D036
:102910000B78124A9B00C1180B681340934201D0F8
:10292000002BDDD10A68094B1A400D4B13430B6095
:10293000D6E70120012B00D0D3E60023CFE7C04625
:1029400000980040BF8FFF07808000008F8FFF0737
:10295000808100008F8EFF078FBFFF07404000007F
:10296000C0800000F7B50324D81C2340134C800816
:1029700012191C00651EAC41001B0D0004000192E1
:10298000002C0ED1002B0BD08000121809181068F3
:102990000500E200D5400D550134A2B29342F7D1B3
:1029A000F7BD019F013C40CF0197370A2E706F7031
:1029B000370C360EAF70EE700435E1E7009800403A
:1029C000F0B5040085B0002802D1012005B0F0BDAB
:1029D0000368DB0714D423689B0760D423681B07B4
:1029E00000D5C5E023685B0700D5F6E023689B06A9
:1029F00000D564E1236A002B00D0A5E10020E5E7C3
:102A00003822C44DAB681340EA68102B09D1D34378
:102A10009B0708D12B689B03DDD56368002BDAD1B7
:102A2000D3E7082BF6D0802263685202934211D17B
:102A30002A6813432B6001F0B7F880270600BF0215
:102A40002B683B42C7D101F0AFF8801B6428F7D94F
:102A50000320BBE7A021C9028B4208D1802329684B
:102A6000DB020B432B602B681A432A60E3E72A68DA
:102A7000A9490A402A602A68A8490A402A60002B0E
:102A8000D9D101F091F880270600BF022B683B42A4
:102A9000A1D001F089F8801B6428F7D9D8E7382243
:102AA0009C4DAB681340EA68102B28D103210A40E3
:102AB000022A26D12A68520503D5E268002A00D1ED
:102AC00083E7696862699648120201400A436A60B6
:102AD000002B0CD12B68934A93491340226913436E
:102AE0002B602B68914A9B045B0FDA400A60904B85
:102AF000186801F011F8002800D16FE765E7002B96
:102B0000D8D0E368002B20D02B68864A802713405A
:102B10002269FF0013432B6080232A685B00134364
:102B20002B6001F041F806002B683B4207D06A6831
:102B300063697B491B020A4013436B604EE701F057
:102B400033F8801B0228EFD982E72B68794A802767
:102B500013402B6001F028F80600FF002B683B4271
:102B600000D13BE701F020F8801B0228F6D96FE77F
:102B70003822684DAB681340182B08D12B6E9B0789
:102B800000D42FE7A369002B00D02BE71DE7A26933
:102B90000123002A10D02A6E022713432B6601F06E
:102BA00003F806002B6E3B4200D01BE700F0FCFF51
:102BB000801B0228F6D94BE72A6E02279A432A6621
:102BC00000F0F2FF06002B6E3B4200D10AE700F056
:102BD000EBFF801B0228F6D93AE738224D4DAB684F
:102BE0001340202B08D1EB6D9B0700D4FEE6A368B1
:102BF000002B00D0FAE6E8E680220021EB6B5205BC
:102C00000091134208D1EB6B1343EB63EB6B134062
:102C10000393039B012300938027474E7F00336873
:102C20003B4215D0A368012B22D1EA6D1343EB651B
:102C300000F0BAFF02270600EB6D3B4238D0009B44
:102C4000012B00D0D2E6EB6B3C4A1340EB63CDE6A0
:102C500033683B43336000F0A7FF019033683B4289
:102C6000E0D100F0A1FF019BC01A0228F6D9EFE6DF
:102C7000EA6D052B05D1013B1343EB65EA6D01239A
:102C8000D4E701218A43EA65EA6D03318A43EA65A4
:102C9000002BCDD100F088FF02270600EB6D3B42F0
:102CA000CDD000F081FF264B801B9842F6D9CFE6AD
:102CB00000F07AFF224B801B9842BDD9C8E6E36939
:102CC000144D002B13D080232A68DB0313432B60A1
:102CD00000F06AFF802706003F042B683B4200D0CB
:102CE00088E600F061FF801B0228F6D9B0E62B6869
:102CF000144A802713402B6000F056FF06003F0463
:102D00002B683B4200D175E600F04EFF801B022885
:102D1000F6D99DE600100240FFFFFEFFFFFFFBFF1C
:102D2000FF80FFFFFFC7FFFF000000200024F4002A
:102D300008000020FFFEFFFF00700040FFFFFFEFD4
:102D400088130000FFFFBFFF3821434DAA680A40E7
:102D5000102A53D0414A022B3AD12B6880271340C6
:102D60002B6000F021FF0600BF042B683B4229D1F5
:102D7000A16A636AEA680B43394980260A40134313
:102D8000226BB6041343626B1343A26B1343E26AD4
:102D900012021343EB6080232A685B0413432B6009
:102DA0008023EA685B051343EB6000F0FDFE04003E
:102DB0002B68334200D021E600F0F6FE001B02280B
:102DC000F6D945E600F0F0FE801B0228CDD93FE69B
:102DD0002B68802613402B6000F0E6FE0400B6044A
:102DE0002B68334204D1EB681E4A1340EB6005E6C2
:102DF00000F0DAFE001B0228F2D929E6012B00D1EF
:102E0000E3E50322E868616A02408A4200D0DCE51B
:102E10007022A16A02408A4200D0D6E5FE21E26A11
:102E2000C90101401202914200D0CEE5F822216B87
:102E3000920302408A4200D0C7E5E022616B12058E
:102E400002408A4200D0C0E5A36B400F4007C01A81
:102E5000431E9841C0B2B9E500100240FFFFFFFEDB
:102E60008C80C111FCFFFEEE382370B51D4CA268AA
:102E70001A4205D123681C489B045B0FD84070BDE3
:102E8000A2681A40082A27D0A2681A40102A17D12F
:102E9000E368E168DB43E5684906490F6F322D0AB4
:102EA000013115409B0709D11048FDF755F9E1683C
:102EB0006843490F0131FDF74FF9E0E70A48F4E7AD
:102EC000A2681A40202A09D0A26800201340182BBB
:102ED000D5D1FA20C001D2E70448D0E78020000213
:102EE000CDE7C046001002400024F40000127A0032
:102EF000F7B504000D00002801D10120FEBD072711
:102F00004A4E33683B408B422AD3226893073BD416
:102F1000D20748D4072733683B40AB420AD933680D
:102F2000BB432B43336000F03FFE019033683B40CE
:102F3000AB426BD123683E4D5B076FD4FFF794FF24
:102F4000AB683C491B051B0F9B005B581F210B40C6
:102F5000D840394A394B1060186800F0DDFDCDE7E4
:102F60003368BB430B43336000F01EFE01903368AF
:102F70003B40AB42C9D000F017FE019BC01A304B5A
:102F80009842F4D90320B9E72949530704D5E0232F
:102F90008868DB0103438B608B682A480340A06884
:102FA00003438B60B4E76268214F012A19D13B6863
:102FB0009B03A2D50721BB688B431343BB6000F082
:102FC000F3FD01903823BA681A406368DB009A4227
:102FD000A0D000F0E9FD019BC01A194B9842F1D92D
:102FE000D0E7022A03D13B689B01E3D485E7002A9E
:102FF00003D13B685B05DDD47FE70223032A03D1BD
:10300000396E1942D6D178E7F96DFAE700F0CCFDB8
:10301000019BC01A0A4B984288D9B3E7AB680A4AA9
:103020001340E2681343AB6088E7C04600200240CB
:10303000001002403CFA00080000002008000020B8
:1030400088130000FFF0FFFFFF8FFFFF064B0749CB
:103050009B68074A5B045B0F9B005B581F2110684D
:103060000B40D8407047C046001002401CFA0008D0
:1030700000000020F0B50368040085B000209B0329
:1030800052D58022974D5205EB6B0090134208D128
:10309000EB6B1343EB63EB6B13400393039B012335
:1030A00000938027904E7F0033683B43336000F0ED
:1030B0007BFD019033683B4228D0E96DC0220800B7
:1030C0009200236C1040114218D098420CD0EB6D46
:1030D000864AE96D1340802252020A43EA65EA6D8E
:1030E00083490A40EA65EB65DB0707D500F05CFD24
:1030F00002270600EB6D3B4200D1EAE0EB6D7B4A14
:1031000000201340226C1343EB6506E000F04CFDF9
:10311000019BC01A0228CDD90320009B012B03D1AB
:10312000EB6B744A1340EB632368DA0706D503257B
:103130006C494A6DAA4365682A434A659A0706D5D1
:103140000C2568494A6DAA43A5682A434A655A076F
:1031500006D5302563494A6DAA43E5682A434A6586
:10316000DA0606D55F49644D4A6D2A4025692A432F
:103170004A65DA0406D55B495C4D4A6D2A406569AB
:103180002A434A659A0506D556495C4D4A6D2A4040
:10319000A56A2A434A655A0506D55249584D4A6DD3
:1031A0002A40E56A2A434A659A0606D54D49554D97
:1031B0004A6D2A40A5692A434A655A0606D54949F7
:1031C000514D4A6D2A40E5692A434A655A040FD594
:1031D0004449256B4A6D920092082A434A65802231
:1031E000D205954204D18022CD6852022A43CA609A
:1031F0001A0306D540253B494A6DAA43656B2A430D
:103200004A659A020FD53749404E4A6DA56B324048
:103210002A434A658022D203954204D18022CD6898
:1032200052042A43CA605A020DD52E4D384E696D9C
:10323000E26B314011436965802149048A4202D121
:10324000E9680A43EA601A050DD503262549256A6F
:103250008A6DB2432A438A65012D04D18022CD684C
:1032600052022A43CA609A040DD50C261D49656A8C
:103270008A6DB2432A438A65042D04D18022CD6829
:1032800052022A43CA6080256D042B420DD0154995
:103290001C4F8A6D666C3A4032438A6580229201E7
:1032A000964202D1CA681543CD609B010FD50D4AE5
:1032B000A16C936D0D4C23400B43936580235B0001
:1032C000994204D18023D1685B040B43D36005B0DD
:1032D000F0BD00F069FC0F4B801B984200D809E755
:1032E0001AE7C0460010024000700040FFFCFFFFDC
:1032F000FFFFFEFFFFFFFFEFFFF3FFFFFFFFF3FF07
:10330000FFFFCFFFFFCFFFFFFF3FFFFFFFFFBFFF2D
:10331000FFFFFFFE881300000020054B5A69824220
:1033200005DA044A9A60044A9A605869C00F7047E7
:103330000020024023016745AB89EFCD014B58685F
:103340007047C046A4010020F8B5040000F02CFC32
:10335000C0270600BF02144D2B693B4216D12A69D3
:10336000124B11001248194028611A4217D18027C8
:10337000FF022B69180038403B420FD0631CF8D085
:1033800000F012FC801BA042F3D306E0631CE3D0E4
:1033900000F00AFC801BA042DDD30320F8BD054BE2
:1033A00001205960FAE7C04600200240FAC300003D
:1033B000FBC30000A4010020F7B5174E019333783A
:1033C00004000D0002200092012B1ED00123FA20E0
:1033D0003370002380007360FFF7B6FF002812D11E
:1033E0000E4F012C12D17B6923437B61009B2B6024
:1033F000BFF36F8F019B6B60FA208000FFF7A4FF83
:103400007B69A3437B6100233370FEBD28000099D4
:103410000CF0AAFAF0E7C046A40100200020024008
:10342000FA2010B58000FFF78FFF8022044B1206B0
:1034300059690A435A615869C043C00F10BDC0465C
:1034400000200240084A536904280AD00748034074
:10345000802080010343C9001943054B0B4353618E
:10346000704704480340F6E70020024007E0FFFFF2
:103470000200010007C0FFFFF7B5224F05003B78AF
:1034800002240191012B1BD00123FA203B70002361
:1034900080007B60FFF758FF041E0FD12B68042BC0
:1034A00010D119496B684A69FA201A4380235B02DC
:1034B00013434B618000FFF747FF040000233B707C
:1034C0002000FEBD0123019A5B421360AE68AB6829
:1034D000EA689B18B3420CD968683100FFF7B2FF65
:1034E000FA208000FFF730FF002808D00400019B7D
:1034F0001E600221044A53698B435361DEE70136A3
:10350000E5E7C046A4010020002002400023F0B5FA
:1035100085B00A681400DC4001D105B0F0BD01257A
:1035200014009D402C4000942A4200D195E04A6846
:103530005F0094460322644622400324BC40E443D7
:103540000194541E012C2ED88668019C2640CC681C
:10355000BC403443846044680126AC432500644683
:10356000240934409C402C434460C568019C25409C
:103570008C68BC402C43C460022A16D107250F2654
:103580001D40AD00AE40DC08A40004190294246A7A
:1035900003962600039CA64334000E69AE402643E2
:1035A000029C266201E0032ADFD1BA400468019D33
:1035B00025402A43C02402606246A40222424CD025
:1035C000274A03259C08A400A4180F221D40ED00E3
:1035D000AA40A027266EFF0596430022B84210D0CD
:1035E000204F0132B8420CD01F4F0132B84208D0F0
:1035F0001E4F0132B84204D01D4A8218571EBA41EC
:103600000432AA40674632432266154C009A266867
:10361000009DD2433543FF0201D435001540674673
:1036200025606668009D3543BF0201D43500154012
:10363000674665600F4C009DE66F3543BF0301D4BC
:10364000350015406746E5670B4C009EE56F2E433D
:10365000FF0301D415402E00E667013359E7C04649
:10366000001802400004005000080050000C0050F8
:1036700000F0FFAF0818024004180240006908403B
:10368000431E9841C0B27047002A01D08161704743
:103690008162FCE770B5C46C056D6560446D002CFB
:1036A00002D0846DC56D65601C24456C066C254098
:1036B0001B3CAC407460046863608368102B02D1CB
:1036C000A260E16070BDA160E260FBE770B50668D2
:1036D000446C0500F0B214210838FCF73DFD0A4B9C
:1036E000A408A4009E420AD8084BE418084BAC6416
:1036F000EB641F2318401E3B83402B6570BD054BB8
:103700000730E418F2E7C046070402400008024010
:10371000800802401C080240F8B504000120002C7B
:103720004BD025682B4B14219D4247D82A4BE818D3
:10373000FCF712FD294B800023640223A61D606460
:10374000F3772B68264AA76813402B60E36821694A
:103750003B430B4361692A680B43A16920000B437B
:10376000E1690B43216A0B4313432B60FFF7AEFF64
:103770008023DB019F4201D1002363607F236268C5
:10378000A16C13400B60206DE16C013A4860032A84
:103790001BD8144A144899180122013B9A40E2654B
:1037A0001300002289006165A0650A604360002063
:1037B0000123E0630534F377E077F8BD0B4BE8189D
:1037C000FCF7CAFC0A4B8000B6E700236365A365DB
:1037D000E365ECE707040240F8FFFDBF000002408C
:1037E0000F80FFFF3F82001040090240F8FBFDBF41
:1037F00000040240F7B5451D0193EE7F040002204E
:10380000012E33D00138E877A71DFE7FB44663460A
:10381000F6B200960026834230D10130F877256851
:10382000E6632868009B98432860019B2000FFF70F
:1038300031FF236BB3421AD00E232A6813432B6047
:10384000A36C1A68D20304D58022196852000A4377
:103850001A60636D002B04D08022196852000A435D
:103860001A60012300202A6813432B60FEBD042246
:103870002B6893432B602A680A23DFE78023E363E6
:10388000EE77F3E7F0B5002808D0841DE37F411DF3
:10389000022B05D00423C3630023CB770120F0BDA6
:1038A00001230E261C27026815689D4315601568C4
:1038B000B543866C156032680C4D2A403260426C0C
:1038C000066C3A409340026D7360C36C5A60436D5E
:1038D000002B05D01A682A401A60836DC26D5A60A9
:1038E00001230020E377C877D9E7C046FFFEFFFF3A
:1038F00070B5811DCA7F0123022A03D00422C2634E
:10390000180070BD0E251C26026814689C431460C4
:103910001468AC43856C14602A680F4C22402A60FE
:10392000426C056C32409340026D6B60C36C5A6010
:10393000436D002B05D01A6822401A60836DC26D5A
:103940005A6001230022CB77431DDA77836B9342C1
:1039500000D098470020D4E7FFFEFFFFF8B51C26F3
:103960000427426C016C32403E0096400D680368AB
:103970001C6835420DD03C420BD01A68920602D426
:103980001A68BA431A60036B4E60002B1DD098472B
:103990001BE002273E009640354219D03C4217D02A
:1039A0001A68920606D40A211A688A431A600939ED
:1039B000821DD177124A934208D9124B00225E60D1
:1039C000431DDA77C36A9342E1D1F8BD0E4BF5E7A8
:1039D0000826370097403D42F7D03442F5D00E25F7
:1039E0001C68AC431C6001231C009440821D4C6089
:1039F000C363D3770022431DDA77436BE3E7C04606
:103A00008000024000040240000002408023034A7C
:103A1000DB0051680B4353607047C04600700040A4
:103A200010B5114C1149236802000B400343236079
:103A3000802300209B009A420ED10D4B0D4918683F
:103A400006235843FCF788FB8022431CD20061699F
:103A500008001040114200D110BD002B01D0013BE5
:103A6000F5E70320F8E7C04600700040FFF9FFFFCC
:103A70000000002040420F0010B5FF2403220B007D
:103A800021000240D20091409B012340C943934052
:103A900000280ADBC0240B4A800880008018A4009C
:103AA00002590A401343035110BD0F221040083839
:103AB000054A800880008018C26911401943C1611D
:103AC000F2E7C04600E100E000ED00E0002805DB81
:103AD0001F2318401E3B8340014A13607047C046B5
:103AE00000E100E08022431E5204012093420DD2E7
:103AF000C021074A07485360036A09061B021B0AD4
:103B00000B43036200200723906013607047C04698
:103B100010E000E000ED00E070B5104B05001978F2
:103B2000002901D1012070BDFA208000FCF714FBB0
:103B30000B4C01002068FCF70FFBFFF7D3FF041EBE
:103B4000F0D1032DEED80200012029004042FFF7FA
:103B500093FF044B20001D60E5E7C04604000020F1
:103B600000000020080000208023084A5B00116844
:103B700010B50B4303201360FFF7CEFF041E03D1E3
:103B800004F078FB200010BD0124FBE70020024078
:103B9000034A044B11681B785B1813607047C046DA
:103BA000C001002004000020014B18687047C04687
:103BB000C001002070B50400FFF7F6FF0500631C8C
:103BC00002D0044B1B78E418FFF7EEFF401BA04225
:103BD000FAD370BD04000020034A044913680B4067
:103BE000034313607047C04600000140FFF9FFFF28
:103BF00080684007C00F70470023F0B585B004000F
:103C00000393984200D1F0E0856D9D4205D103F009
:103C100033FE23005433E5651D70802325685B0562
:103C2000AA681A4200D1A7E00022AB680192DB002B
:103C300008D410230126A26D01961343A365E36DFA
:103C40003343E3652800FFF7D3FF1022A36D134031
:103C5000034300D0CCE0A26D674B20691A400633C5
:103C6000FF331343A365AB68DB0761D4276BE168BF
:103C70007B1E9F41A368A27E0B43217E3F038903E5
:103C80000B43617EC9030B4351030B439C46002841
:103C900000DB86E041004908230066462C331B7890
:103CA0005B0033433B430B43611CC97F012905D1B2
:103CB000002A00D078E0802252021343626A002A70
:103CC00005D0E02149000A40A16A0A431343EA688B
:103CD0004A490A401343EB60230062683C33E16CBD
:103CE0001B78970FBF079C463943012B08D1236CE3
:103CF000666C33430B43A16C0B4361463B43194352
:103D00002B693F4F3B400B4380212B6153005B08E5
:103D1000C9058B420CD080231B069A4208D0394932
:103D2000394F0B683B40F027BF033A4013430B6009
:103D3000072170276B69626B8B4313436B61696961
:103D4000A36BB9431B010B436B61002834D11023D3
:103D5000A96A5B420B43AB6207216B690B409A4235
:103D600039D10023E365A26D03339A43023B134329
:103D7000A365019805B0F0BDAA6824490A40134321
:103D8000AB60234B23491868FCF7E6F9013040008B
:103D90000390039B002B00D146E7039B013B039359
:103DA000F7E78021890377E72022A76D3A43A265D0
:103DB000E26D1143E16581E780239B039842CBD1FB
:103DC0001C21AB6AE369013B9B000B402C399940F5
:103DD0000B00216EBEE71223A26D9A43023B1343F0
:103DE000A3650123E26D1343E36501230193C0E75B
:103DF000A36D1A43A265F8E7FDFEFFFF0102DEFF97
:103E000002FCFF1F08270140FFFFC3FFE8FFFF6F11
:103E100000000020400D03007047704710B5806A15
:103E2000FFF7FBFF10BD704770474023806A10B555
:103E3000826D134383650423C26D1343C365FFF78B
:103E4000F3FF10BD502370B5846AA26D1A422DD1C4
:103E5000A26DB133FF331343A365C02325681B0153
:103E6000EA681A4215D1A37E002B12D12B681B07DA
:103E70000FD52800FFF7BCFE00280ED10C226B687E
:103E800093436B60A26D0F4B1A400433FF3313430F
:103E9000A3652000FFF7C0FF70BD2023A26D134370
:103EA000A3650123E26D1343E365F2E7A36DDB062F
:103EB00003D52000FFF7B8FFEEE7236D5B6B984753
:103EC000EAE7C046FEFEFFFFF8B5036804001E687F
:103ED0005D6802231E420FD01D420DD0836DDB06AC
:103EE00004D48023826D1B0113438365200000F0FE
:103EF00065FA022223681A6004231E4201D01D4283
:103F000004D108231E422BD01D4229D0A36DDB060D
:103F100004D48023A26D9B001343A365C0232768AC
:103F20001B01FA681A4215D1A37E002B12D13B68FF
:103F30001B070FD53800FFF75BFE002866D10C2267
:103F40007B6893437B60A26D354B1A400433FF338B
:103F50001343A3652000FFF75FFF0C2223681A605C
:103F600080273E420BD03D4209D08023A26D5B02E8
:103F70001343A3652000FFF756FF23681F608027C7
:103F80007F003E420BD03D4209D08023A26D9B02B0
:103F90001343A365200000F00FFA23681F608027F9
:103FA000BF003E420BD03D4209D08023A26DDB0210
:103FB0001343A365200000F000FA23681F6010235C
:103FC0001E4217D01D4215D0236B002B03D023684F
:103FD000DB689B070BD08023A26DDB001343A36536
:103FE0000223E26D20001343E365FFF71DFF10225B
:103FF00023681A608027BF013E4206D03D4204D0AC
:10400000200000F0DCF923681F60F8BD2023A26DBA
:104010001343A3650123E26D1343E3659AE7C046AA
:10402000FEFEFFFF0023F0B585B00393030000916F
:1040300054331A7804000220012A4CD00122276947
:104040001A7025682800FFF7D3FD002800D0E9E0AA
:10405000009B04225B6880219C4697436246009B3C
:1040600009061B68022A00D1B0E05A03520B8F42A6
:1040700033D1A96A0A43AA62009A68699268190250
:104080006B4E0A403240884302436A61002B1EDABD
:10409000E021684A6848156849042940834200D0F5
:1040A0007EE080200004054211D11368634D2B404F
:1040B0000B431843624B106018686249FCF74CF8D8
:1040C000431C0C2058430390039B002B64D1002019
:1040D00000235434237005B0F0BD1F2167460F4004
:1040E0001039B940CE430196266E8E433100002A26
:1040F00012D1980E1F321040B84062460843920811
:10410000E169013220668A42B6D8A96A01989A000C
:10411000120FBA400140ADE701221342ECD19218D0
:1041200001201342E8D1100002321342E4D10130E1
:104130001A07E1D40130DA06DED401309A06DBD466
:1041400001305A06D8D401301A06D5D40130DA0528
:10415000D2D401309A05CFD401305A05CCD40130E5
:104160001A05C9D40130DA04C6D401309A04C3D484
:1041700001305A04C0D401301A04BDD40130DA032E
:10418000BAD401309A03B7D480221800D20210406A
:104190001342B1D01220AFE7039B013B039393E797
:1041A000294883420BD180204004054200D08EE78D
:1041B0001368224D2B400B431843106087E72348B8
:1041C000834200D083E78020C003EEE78F4204D112
:1041D000AA6A5903490B8A43AA62002B00DB76E7DF
:1041E000144A15481168834208D1A02310685B0463
:1041F0000B40124901400B43136068E712488342A9
:1042000003D1C02310681B04F2E71048834200D09A
:104210005DE7C0204004136801400848034019438B
:10422000116054E72023A26D01201343A3654FE7DB
:1042300000FFFF0708270140001000B0FFFF3FFE0E
:1042400000000020400D0300004000B8002000B432
:104250000023F7B502680193916801330400194205
:1042600001D00020FEBD90682249084208D01022EB
:10427000A16D0A43A265E26D13430120E365F1E7F6
:1042800091681D4F39400B4393601C4B1B681B0208
:1042900021D4637E012BE4D0FFF786FC01250600C4
:1042A000226813682B42DCD193682B4203D19368B8
:1042B0003B402B439360FFF777FC801B0228EFD92C
:1042C00023681B682B42EBD11023A26D1343A36517
:1042D000E36D2B43D1E70A4B0A491868FBF73CFF13
:1042E00001300190019B002BD3D0019B013B019336
:1042F000F8E7C04617000080E8FFFF7F082701406D
:1043000000000020400D0300F7B5056804002800F8
:104310000E000192FFF76CFC022300283FD127001A
:1043200054373A78012A3AD0013B3B70EA681A4286
:104330000CD1AA681A4205D0AA681A4B1A40022367
:104340001343AB600123EA681343EB602000FFF7DF
:104350007FFF031E23D1A16D134A1140802252001A
:104360000A43A265E065114A206D2168C262104AC5
:104370000263104A42631C220A603B704A68103391
:1043800013434B603200019B4031FFF733FA0300C7
:104390002068044A8168114004220A4382601800A0
:1043A000FEBDC046E8FFFF7FFEF0FFFF453E000870
:1043B0001D3E00082B3E000870477047704770474D
:1043C000F8B5041E00D1CCE005005C352B78DAB2DC
:1043D000002B04D103005D331A7003F00FFB102192
:1043E0002268082793698B439361FFF7DDFB060082
:1043F00023689A693A4200D0A7E001269A693243BD
:104400009A61FFF7D1FB070023689A69324200D115
:10441000A9E0022299690A439A61674A934202D14C
:104420006168664A1160217C4022012900D0A3E026
:10443000996991439961627C012A00D0A0E08022B1
:104440009969D2010A439A61A27C012A00D09BE0BB
:104450009A695B490A409A619A695A48A168024080
:10446000A4200A439A619A6982439A611A6994382E
:1044700082431A61E268012A00D08AE09869033217
:1044800002439A61A269E069013A013800025206CA
:104490000243206A01380243606901380004024384
:1044A000DA61C022920091420ED1E26A216B013A98
:1044B0000139090112020A43A16A01390A43616AFA
:1044C000013909040A43DA601900C0310A68E06B57
:1044D0003D4E02430A603D4A9818421E90413C4AB4
:1044E000404210403B4A0433D96F8018626B314020
:1044F00012040A432064DA6702007032D96F6264E2
:10450000354EA26B314012060A43DA670300B0331E
:10451000A364D833E36498239B00C31823659E23C8
:104520009B00C3186365D4239B00C118031DD422CC
:10453000994200D2D33A002192000AF08BFD00206C
:104540000123A06520662B700CE0FFF72DFB801B7C
:104550000A2800D84CE70123226E13432366032365
:104560002B700120F8BDFFF71FFBC01B0A2800D8E5
:104570004AE7236E3343F1E799690A439A615AE7A0
:104580009A6916490A405EE78022996952010A43F6
:1045900061E7002A00D175E7022A09D080269F69C9
:1045A0003E439E611E6930431861032A00D069E7CB
:1045B0002022986964E7C04600640040006500401E
:1045C000FFEFFFFFFFFCFFFFFFFFE0FF0098FFBFD3
:1045D000B0FCFFFF50B70040FFFFFFF0FFBFFFFF41
:1045E000030070B55C331B78013B012B1AD88C6833
:1045F000CB680D694E69A40706C9002909D1DB06FD
:104600002343016C33432D0492002B43535000206D
:1046100070BD416CD2005B0752182B4334431360CA
:104620005460F4E70223026E134303660120EFE7B0
:1046300030B504005C342478012C0FD1039D5B005D
:1046400092002B4313433F22006809010430C46FDA
:104650000B4394432343C367002030BD0423026E01
:10466000134303660120F8E702005C32117803006F
:10467000C8B2012908D10131117019688A698243D1
:1046800000208A61186670470422196E01200A43CF
:104690001A66F8E7F8B505005C352B780400022BA4
:1046A00036D101260268936933439361FFF77CFAA0
:1046B000070023689A69324215D010219A690827A9
:1046C0008A439A61FFF770FA060023689A6910001E
:1046D00038403A4213D1022299690A439A61012370
:1046E000A0652B700AE0FFF75FFAC01B0A28E0D92B
:1046F000236E3343236603232B700120F8BDFFF79D
:1047000053FA801B0A28E0D90123226E1343F1E7F4
:104710000823026E13430366EFE700000300F7B5BA
:104720005C331B78022B58D105682B00C4331C68FE
:10473000A40206D58023026E9B001343036601206A
:1047400036E01C680F69A403A30F4C6800938E68C1
:104750000B68002C2DD137439B048E691F43CB6916
:10476000009C33434E6933430E6A36063343CE68AA
:104770003604334348266643446DA446664473605A
:104780000823376037005B429E1B154B08370193A7
:10479000CC68A4466346019CE35C9C46BB19634518
:1047A0000CD30123009ACC3593402B608365002005
:1047B000FEBD3B4380273343FF05CEE7D3781B067E
:1047C0009C46644693781B0423431478234354780F
:1047D00004322402234308C7DAE70823026EACE759
:1047E0007CFA0008F7B5040001935C342478022CAD
:1047F00000D080E004680F25270040295BD1903766
:104800003E682E4206D18023026E5B00134303668E
:104810000120FEBD3D683F680326BC4663462D0A65
:1048200001273540DB0106D50434E46F640A3C42BD
:1048300001D0ED19354048246C43866CA4198026BC
:104840002768F605374057602668F600002F49D1E3
:10485000760D802716602668BF053E40802796604B
:1048600026687F03F60FF60716616668234BB6B21B
:10487000D66166689C463603360FD66066683E4051
:10488000802756616668BF033E4096616668760081
:10489000760E166266680834F60F56620026634686
:1048A000D768DF5DB7421FD80368402921D1943310
:1048B00000201D60ADE798373E682E42A3D0032646
:1048C0003D683B682D0A01273540DB0106D50434DD
:1048D000E46F240A3C4201D0ED1935404824C66CEF
:1048E0006C43ABE7F608B4E7A75D019B9F55013623
:1048F000D5E79C33DCE70823026E87E77CFA0008E3
:10490000036807205B6C1A0002400A601A0A024022
:104910004A6018221A408A60012258091040C86073
:10492000980910400861D80910404861D80A104021
:104930008861180B1040C861580B10400862980B32
:104940005B0202405B0E00204A628B6270470300EC
:1049500070B55C331B78013B012B00D96DE0072457
:104960000D0000682540836D214201D0DC0722D56F
:104970003824214201D09C071DD5E0246400214247
:1049800001D05C0717D5F0246401214201D01C0737
:1049900011D5E0242402214201D0DC060BD5C0242D
:1049A000A402214201D09C0605D5FC242404214206
:1049B00005D05C0603D40124C66D3443C465002DC4
:1049C00001D0DC0722D43824214201D09C071DD419
:1049D000E0246400214201D05C0717D4F024640174
:1049E000214201D01C0711D4E0242402214201D02D
:1049F000DC060BD4C024A402214201D09C0605D4BD
:104A0000FC242404214205D05B0603D50223C46D97
:104A10002343C3650B0604D50400DC342368134329
:104A20002360CB0504D50400E034236813432360DE
:104A3000436D0B434365002070BD0223026E134398
:104A400003660120F8E7704770477047704770476A
:104A5000704770477047704770470368F0B51A6D2C
:104A60005F6D196D1740E022520117405A6D85B0F5
:104A70000A4007210A400092196D5A6D04000A404D
:104A800038210A400192196D5A6D0A40F12109043A
:104A90000A400292196D5A6D5D6D0A40E0210903CA
:104AA0000A40039240221E6D164204D0154202D0E5
:104AB0001A65FFF7CFFF8022520016420CD0154234
:104AC0000AD023681900D8310868083109681A65C6
:104AD00001402000FFF7BBFF002F05D023683900FD
:104AE00020001F65FFF7AFFF009B002B06D0009A48
:104AF0002368110020001A6503F05CFD019B002B68
:104B000006D0019A2368110020001A65FFF79CFF68
:104B100080239B001E4206D01D4204D02268200044
:104B20001365FFF792FF802216420CD015420AD07F
:104B300023681900D4310868083109681A650140F2
:104B40002000FFF783FF80239B011E4206D01D42F9
:104B500004D0226820001365FFF77AFF80231B0230
:104B60001E4206D01D4204D0226820001365FFF7C4
:104B700070FF8023DB011E4207D01D4205D0226852
:104B800013658023226E13432366039B002B06D0FC
:104B9000039A2368110020001A65FFF75DFF029B4E
:104BA000002B05D02368029A1A65236E13432366EF
:104BB000236E002B02D02000FFF74DFF05B0F0BDA3
:104BC000F8B504000120002C67D0636A002B65D182
:104BD000822261685200914200D0E36100232500E7
:104BE000A3625D352B78DAB2002B05D123005C334C
:104BF00020001A7003F016F8022340222B7021685F
:104C0000E6680B689343E0220B60D20000239642D3
:104C100048D9F02218001201964200D0A3628222E5
:104C20008427636852001340A2683F023A4002277B
:104C300013432269A5693A4013430122676917406B
:104C40003B438027BF002F403B43E7693732174083
:104C50003B43276A4832174080223B43A76A9201B0
:104C600017403B43102708220B60636A2D0C3B4022
:104C7000676B17403B43F0273F013E403343042618
:104C800035402B4303434B60CB6908480340002069
:104C9000CB61012320665D342370F8BD00232361BE
:104CA00063619BE780204001B6E7C046FFF7FFFF46
:104CB00070477047704770477047000002220368D2
:104CC00070B5DD681E69040016420DD015420BD088
:104CD000053A1A61043202779B699B0700D17CE098
:104CE000FFF7E8FF0023237704231E4212D01D4262
:104CF00010D00522236852421A61073222779A693E
:104D0000C0239B0020001A4200D16CE0FFF7D2FFC5
:104D10000023237708231E420FD01D420DD0092205
:104D2000236852421A610D322277DB6920009B070B
:104D30005FD0FFF7BFFF0023237710231E4211D05F
:104D40001D420FD01122236852421A611932227774
:104D5000DA69C0239B0020001A4250D0FFF7AAFF57
:104D60000023237701231E4208D01D4206D00222D1
:104D70002368524220001A61FFF79AFF82239B01A9
:104D80001E4207D02B0605D52368204A20001A6151
:104D900000F007F9F30507D52B0605D523681C4A53
:104DA00020001A6100F0FEF840231E4208D01D4288
:104DB00006D041222368524220001A61FFF77CFF8F
:104DC00020231E4208D01D4206D0212223685242D1
:104DD00020001A6100F0E4F870BDFFF76AFF2000C0
:104DE000FFF769FF7EE7FFF764FF2000FFF763FF2F
:104DF0008EE7FFF75EFF2000FFF75DFF9BE7FFF701
:104E000058FF2000FFF757FFAAE7C0467FDFFFFFEC
:104E1000FFFEFFFF264A10B50368904209D08024A8
:104E2000E405A04205D0234CA04202D0224CA0426F
:104E30000FD17024A3434C682343904215D08024A3
:104E4000E405A04211D01B4CA0420ED01A4CA04247
:104E50000BD01A4CA04208D0194CA04205D0194CD6
:104E6000A04202D0184CA04203D1184C1C40CB6881
:104E700023438024A3434C6923438C68C4620C6899
:104E80008462904208D00E4A904205D00D4A90426A
:104E900002D00D4A904201D10A69026304220168DE
:104EA0000A43026001224261BFF34F8F036010BDCD
:104EB000002C014000040040000800400020004099
:104EC000004001400044014000480140FFFCFFFF5A
:104ED00070B504000120002C23D025003D352B782F
:104EE000DAB2002B05D123003C3320001A7002F007
:104EF00049FF02232B702068211DFFF78BFF220042
:104F0000012300204832137047340A3A137053705B
:104F10009370D370137153719371D37113722370A3
:104F20002B7070BDF0B5040002223C3425780300DC
:104F30001000012D29D01D003D352A701B68134E2D
:104F40005A689868B34203D1114F3A404F683A43C8
:104F50007027BA430F683A435A60B3420CD080229C
:104F6000D205934208D00B4A934205D00A4A934295
:104F700002D00A4A934204D1802290438A681043A7
:104F80009860012300202B702070F0BD002C0140A0
:104F9000FFFF0FFF000400400008004000400140F8
:104FA000704770477047000030B5EFF3108401225E
:104FB00082F310880168134D0B682B400B6084F35B
:104FC0001088EFF3108182F3108802680E4C93680A
:104FD0002340936081F31088C36E012B0AD1EFF355
:104FE000108183F31088102402681368A3431360B0
:104FF00081F31088030020228C331A600023C366DB
:10500000436730BDDFFEFFFFFEFFFFEF10B5806A94
:1050100003F0EAF910BD7047F7B50168C34DCB69DD
:1050200004000A6888682B4210D120252B4200D149
:105030009BE08026760515400640354300D194E07C
:10504000636F2000002B00D085E085E0B84D05405F
:105050000095B84D009E1540354300D185E02500F0
:1050600001269035334205D0D70503D50E622F684F
:105070003E432E60022633420CD0C7070AD52700D4
:105080000E6290373E680197B446042667463E4359
:10509000019F3E60042633420CD0C7070AD5270083
:1050A0000E6290373E680197B446022667463E433B
:1050B000019F3E600826B446334209D02027009E57
:1050C0001740374304D066460E622F683E432E6079
:1050D00080263601334206D0570104D50E622021C6
:1050E0002E68314329602968002935D020210B42E0
:1050F0000AD080235B0511400340194304D0636F3D
:10510000002B01D02000984722682B684027966822
:1051100028223E40134020001E4322D0FFF744FFC8
:1051200023689B683B4218D0EFF31081012383F37F
:105130001088250004CD9368BB43936081F31088E9
:10514000E86F002809D07C4B8363FEF7D1FB002871
:1051500002D0E86F836B9847F7BD200003F044F955
:10516000FAE703F041F92E60F6E7E56E012D00D075
:10517000A4E01026334200D1A0E0324200D19DE0ED
:1051800023000E6289685C3308001A8840231840A7
:1051900019425ED0201DC16F0F68796889B200295D
:1051A0004DD091424BD222005E32118020218C469C
:1051B0003A681140009161460A4232D1EFF31087FC
:1051C00085F3108821685D4E0A6832400A6087F3D3
:1051D0001088EFF3108785F3108821688A68AA4346
:1051E0008A6087F31088EFF3108785F310882168B1
:1051F0008A689A438A6087F31088230062468C335A
:105200001A60009BE366EFF3108185F31088226833
:105210000F351368AB43136081F31088C06FFEF73E
:1052200031FB02232200236723005C325E331B889C
:105230001188C91A89B22000FFF7EDFE8CE7914270
:1052400000D089E73B689B0600D485E702232367EB
:10525000F1E721005E310B8809889BB2002900D15B
:105260007AE7D21A91B2002900D175E7EFF31087DF
:1052700085F310882268324E13683340136087F339
:105280001088EFF3108785F3108822682D4E9368FD
:105290003340936087F31088230020228C331A60F8
:1052A000E0666067EFF3108085F3108810252268B0
:1052B0001368AB43136080F31088C7E780256D0344
:1052C0002B4206D0460204D520000D6200F026FFD6
:1052D00042E780210B4207D080252D041140284051
:1052E000014301D0A36FACE640210B4216D00A4225
:1052F00014D0EFF31080012383F310882268136821
:105300008B43136080F310882300202288331A60B7
:1053100000232000A36709F0BBFC1DE7190213D589
:10532000510011D5200000F0FBFE15E70F0800002A
:1053300001000010200100040D500008FFFEFFFFD7
:10534000DFFEFFFFFEFFFFEFDB0100D404E7002AD2
:1053500000DB01E7200000F0E2FEFDE60100F8B509
:1053600003008C310C6860331A880368222C5DD1ED
:105370005B6A846D134002002370836D5E320133DB
:1053800083651388013B9BB2138013889CB2002B6A
:1053900048D1EFF31086013383F310880568264F58
:1053A0002A683A402A6086F31088EFF3108683F368
:1053B00010880568AA689A43AA6086F3108820229C
:1053C0000A6002681D49446704678A4210D01C497C
:1053D0008A420DD0526812020AD5EFF3108183F38E
:1053E00010880268174C13682340136081F31088FB
:1053F000C36E012B17D10022C266EFF3108483F332
:10540000108801680F330A689A430A6084F3108891
:105410000268D169194200D0136203005C33198815
:10542000FFF7F9FDF8BD02F0B9FFFBE70822996923
:105430000A439A61F6E7C046DFFEFFFF00800040A6
:1054400000840040FFFFFFFB0200F8B503008C3230
:10545000116860331C88036822295CD1596A836D06
:10546000214019800100023383655E310B88013BC6
:105470009BB20B800B889CB2002B48D1EFF31086B7
:10548000013383F310880568254F29683940296066
:1054900086F31088EFF3108683F310880568A968F7
:1054A0009943A96086F310882021116002681D4984
:1054B000446704678A4210D01B498A420DD0526863
:1054C00012020AD5EFF3108183F310880268174C9B
:1054D00013682340136081F31088C36E012B17D12A
:1054E0000022C266EFF3108483F3108801680F3343
:1054F0000A689A430A6084F310880268D1691942E5
:1055000000D0136203005C331988FFF784FDF8BDF7
:1055100002F044FFFBE7082299690A439A61F6E723
:10552000DFFEFFFF0080004000840040FFFFFFFB24
:105530000300F0B5060060331B8885B00293036852
:105540008C36DD691A68040003929A680192326809
:10555000222A00D0C8E0030068331B88002B00D14A
:1055600098E020231D4200D194E0236802995B6AF1
:10557000A26D0B4013702200A36D5E320133A36550
:105580001388013B9BB2138007232268D5691D4213
:105590002FD0063B1D4208D00399C90505D521002F
:1055A00013629031086803430B6002231D4209D047
:1055B0000199C90706D52100136290310868DB18EC
:1055C00003430B6004231D4209D00199C90706D586
:1055D0001362220090321168023B0B4313602700D4
:1055E00090373B68002B04D0200002F0FDFE002322
:1055F0003B6023005E331B8899B2002BB1D1EFF3DF
:105600001085013383F3108820683A4F02683A40CE
:10561000026085F31088EFF3108583F3108820680B
:10562000354F82683A40826085F3108820223260CC
:1056300061672167226831498A4210D030498A4225
:105640000DD0526812020AD5EFF3108183F310884F
:1056500022682C4813680340136081F31088E36EBE
:10566000012B3DD10022E266EFF3108083F3108816
:1056700021680F330A689A430A6080F31088226811
:10568000D169194200D0136223005C3320001988CD
:10569000FFF7C1FC23005E331B889AB2002B1DD09C
:1056A000230068331B88934218D9EFF3108001223E
:1056B00082F310882168144D8B682B408B6080F337
:1056C0001088124B6367EFF3108182F31088202358
:1056D000226810680343136081F3108805B0F0BDA1
:1056E000200002F05BFED5E7082299690A439A611F
:1056F000F4E7C046FFFEFFFFFEFFFFEF0080004023
:1057000000840040FFFFFFFBFFFFFFEF5D53000839
:105710000300F0B5060060331B8885B00293036870
:105720008C36DD691A68040003929A680192326827
:10573000222A00D0C6E0030068331B88002B00D16A
:1057400096E020231D4200D192E023680298596A16
:10575000A26D0140118021000232A2655E310A88EB
:10576000013A92B20A800722DD6915422FD0063A2B
:10577000154208D00399C90505D521001A62903158
:10578000086802430A600222154209D00199C9073C
:1057900006D521001A6290310868921802430A6007
:1057A0000422154209D00199C90706D51A622200C0
:1057B0000223903211680B431360270090373B6837
:1057C000002B04D0200002F00FFE00233B602300DA
:1057D0005E331B8899B2002BB3D1EFF310850133F0
:1057E00083F3108820683A4F02683A40026085F3DC
:1057F0001088EFF3108583F310882068354F826896
:105800003A40826085F31088202232606167216708
:10581000226831498A4210D030498A420DD05268FC
:1058200012020AD5EFF3108183F3108822682C4806
:1058300013680340136081F31088E36E012B3DD1A0
:105840000022E266EFF3108083F3108821680F33A3
:105850000A689A430A6080F310882268D169194265
:1058600000D0136223005C3320001988FFF7D3FBBC
:1058700023005E331B889AB2002B1DD023006833AF
:105880001B88934218D9EFF31080012282F310880D
:105890002168144D8B682B408B6080F31088124B6D
:1058A0006367EFF3108182F3108820232268106869
:1058B0000343136081F3108805B0F0BD200002F0AF
:1058C0006DFDD5E7082299690A439A61F4E7C0465D
:1058D000FFFEFFFFFEFFFFEF00800040008400405E
:1058E000FFFFFFFBFFFFFFEF49540008F8B504007E
:1058F0002569A168036829436569C2692943186855
:105900009C4D114328400143196059689A48A56984
:105910000140E068014399485960834204D09849A6
:105920008B4201D0216A0D439968964E314029433C
:105930000F259960D96AA943656A2943D9629249BA
:105940008B421FD10321914B5B6D0B401800022B42
:1059500006D008208B4203D0013B59424B419800AE
:1059600080231B029A4200D0CFE0082857D8FAF7CC
:10597000E9FBFB005600AA005600C900560056007D
:105980005600AB0082498B4214D10C217F4B022080
:105990005B6D0B40082BE3D007D800208342DFD09B
:1059A00004308342DCD04018DAE708200C2BD7D033
:1059B0000018D5E777498B4213D13021734B022071
:1059C0005B6D0B40202BCBD007D800208342C7D083
:1059D0000430102BC4D00C30C2E70820302BBFD0CD
:1059E000E6E76D498B4200D1BAE06C498B4200D1A9
:1059F000B6E06B498B4200D1B2E0834211D1C022A4
:105A00008021624B12015B6D090113408B422DD046
:105A100019D8002B1CD08022D200934223D0012021
:105A20001BE0574A9342FAD1C0228021574B920083
:105A30005B6D890013408B4218D004D8002B07D02F
:105A400080225200E9E79342E9D1802636020EE037
:105A5000FDF7FCFA061E0AD10020524BA366002374
:105A60006367A367F8BDFDF7FFF9F3E74E4E626A7F
:105A70004E4B5200D75A30003900FAF76DFB032322
:105A800065686B438342CAD82B038342C7D3002384
:105A90003A0030001900FAF70FFD0027060E0B023E
:105AA000334302026E0892197B41100019002A004C
:105AB0003B00FAF701FD3E4BC2183E4B9A42AED86E
:105AC0002368D860C8E7384A616A384B490010003B
:105AD000C95AFAF741FB656840006B08C0182900F5
